:020000040800F2
:10000000C81A0020E50100080D5400080F5400082C
:1000100013540008175400081B5400080000000087
:100020000000000000000000000000001F54000855
:100030002154000800000000235400082554000843
:10004000FF010008FF010008FF010008FF01000890
:10005000FF010008FF010008FF010008FF01000880
:10006000FF010008FF010008FF010008FF01000870
:10007000FF010008FF010008FF010008FF01000860
:10008000FF010008FF010008FF010008FF01000850
:10009000FF010008FF010008FF010008FF01000840
:1000A000FF010008FF010008FF010008FF01000830
:1000B0002D5400084F5400086D540008FF0100083B
:1000C000FF010008FF010008FF010008FF01000810
:1000D000FF0100085F3B0008F13B0008953C000869
:1000E000FF010008FF010008FF01000800F002F80E
:1000F00000F068F80AA090E8000C82448344AAF15A
:100100000107DA4501D100F05DF8AFF2090EBAE857
:100110000F0013F0010F18BFFB1A43F0010318473B
:10012000FC6400001C6500000A444FF0000C10F84D
:10013000013B13F0070408BF10F8014B1D1108BF65
:1001400010F8015B641E05D010F8016B641E01F805
:10015000016BF9D113F0080F1EBF10F8014BAD1C55
:100160000C1B09D16D1E58BF01F801CBFAD505E073
:1001700014F8016B01F8016B6D1EF9D59142D6D3CD
:10018000704700000023002400250026103A28BFF5
:1001900078C1FBD8520728BF30C148BF0B607047F9
:1001A000642905F00183002070471FB505F080FD2C
:1001B00004000020002105F0D3FD401C60601FBD3D
:1001C00010B510BD05F04FFD1146FFF7EEFF05F02D
:1001D00017F805F07FFD03B4FFF7F2FF03BC03F04F
:1001E00031FB00000948804709480047FEE7FEE769
:1001F000FEE7FEE7FEE7FEE7FEE7FEE7FEE7FEE7D7
:1002000004480549054A064B70470000115600088E
:10021000ED000008C8140020C81A0020C8160020ED
:10022000C816002031490143314A1160704770B54A
:10023000002100230F22C4780CB32D4C246804F451
:10024000E064C4F5E064210AC1F10403CA404478C3
:1002500004FA03F18478144021430901254C0678FF
:10026000A155047804F01F050124AC4005786D11F8
:100270004FF0E02606EB8505C5F8004109E004785B
:1002800004F01F050124AC401B4D0678761145F89B
:10029000264070BD194A0A400243154B1B1F1A60C5
:1002A000704739B1124A121D12680243104B1B1DD0
:1002B0001A6006E00E4A121D126882430C4B1B1D89
:1002C0001A607047042808D14FF0E021096941F015
:1002D00004014FF0E022116107E04FF0E0210969CD
:1002E00021F004014FF0E022116170470000FA058F
:1002F0000CED00E000E400E080E100E080FFFF1F83
:1003000010B50446F948844208D10121401500F097
:1003100041FD0021601500F03DFD17E0F4488442E6
:1003200008D10121001500F035FD0021201500F055
:1003300031FD0BE0EF48844208D10121C80300F0F1
:1003400029FD00214FF4004000F024FD10BD30B520
:100350000246002000235068E74C20400D790C68CD
:1003600044EA0524204350609068E44C2040D1E9E1
:1003700002542C434D7944EA450420439060D06AEE
:1003800020F470000C7C641EE4B2234340EA035066
:10039000D06230BD00210160017141718160C16096
:1003A00001210174704721B1826842F0010282602C
:1003B00003E0826822F001028260704721B1826806
:1003C00042F48072826003E0826822F4807282606C
:1003D000704710B50023CBB21AB144681C43446087
:1003E00002E044689C43446010BD816841F008010C
:1003F00081607047014600208A6812F0080F01D022
:10040000012000E000207047816841F00401816014
:100410007047014600208A6812F0040F01D00120C5
:1004200000E00020704721B1826842F4A00282609F
:1004300003E0826822F4A002826070470146002037
:100440008A6812F4800F01D0012000E0002070477C
:1004500010B50A4600210023416821F46041531E73
:1004600041EA4331416010BD21B1426842F400626B
:10047000426003E0426822F4006242607047F0B5D7
:1004800004460D4600200021092D11DDE068A5F18C
:100490000A0606EB4607072606FA07F18843A5F188
:1004A0000A0606EB460603FA06F10843E0600CE094
:1004B000206905EB4507072606FA07F1884305EB97
:1004C000450603FA06F108432061072A0FDA606B3C
:1004D000561E06EB86071F2606FA07F18843561EAE
:1004E00006EB860605FA06F10843606322E00D2A52
:1004F0000FDA206BD61F06EB86071F2606FA07F1D8
:100500008843D61F06EB860605FA06F108432063EA
:1005100010E0E06AA2F10D0606EB86071F2606FA38
:1005200007F18843A2F10D0606EB860605FA06F1EF
:100530000843E062F0BD21B1826842F4801282601B
:1005400003E0826822F48012826070470146C86C22
:1005500080B2704765484C300068704721B14268EE
:1005600042F48062426003E0426822F480624260AA
:10057000704721B1426842F48052426003E0426811
:1005800022F48052426070470A460021816821F4BB
:10059000E04111438160704721B1826842F400421A
:1005A000826003E0826822F400428260704721B1D9
:1005B000826842F40212826003E0826822F402122E
:1005C00082607047014600208A6812F4001F01D043
:1005D000012000E000207047F0B5044615460020D9
:1005E00000220026092911DDE068A1F10A0707EBC6
:1005F000470C072707FA0CF29043A1F10A0707EB13
:10060000470703FA07F21043E0600CE0206901EBB2
:10061000410C072707FA0CF2904301EB410703FA5C
:1006200007F210432061A06BC0F30156EF1C06F1E6
:10063000010CA7EB0C0707EB870C1F2707FA0CF23E
:100640009043EF1C06F1010CA7EB0C0707EB8707A3
:1006500001FA07F21043A063F0BD10B50A4600216D
:100660000023816B21F44011531E41EA0351816341
:1006700010BD10B5002303460B441A6010BD02469E
:100680000023134601F128000344186880B2704724
:100690000A46002141681A4B1940114341607047D6
:1006A0004162826270470A460021416821F01F01C1
:1006B00011434160704740B10C490831096841F469
:1006C00000010A4A0832116007E008490831096848
:1006D00021F40001054A08321160704702460020EB
:1006E00013680B420ED001200DE0000000240140F1
:1006F00000280140003C0140FFFEF0FFFDF7F1FF44
:10070000FFFD3FFF00207047CA430260704770B58D
:1007100002460020002300240B125568CEB205EAE1
:10072000060415681D4202D00CB1012000E0002033
:1007300070BD00220A12D3430360704710B504460F
:10074000CA48844208D10121042000F023FB002183
:10075000042000F01FFB46E0C548844208D1012177
:10076000082000F017FB0021082000F013FB3AE0FE
:10077000C048844208D10121102000F00BFB002169
:10078000102000F007FB2EE0BB48844208D1012175
:10079000202000F0FFFA0021202000F0FBFA22E0E8
:1007A000B648844208D10121402000F0F3FA00212C
:1007B000402000F0EFFA16E0B148844208D1012150
:1007C000802000F0E7FA0021802000F0E3FA0AE040
:1007D000AC48844207D10121801500F0DBFA0021EA
:1007E000A01500F0D7FA10BD10B50121084600F0A1
:1007F000D1FA0021012000F0CDFA10BD2DE9F04121
:10080000024600250026002000230024002791F83E
:1008100003C00CF00F0591F803C01CF0100F03D0BB
:1008200091F802C04CEA050591F800C0BCF1000F38
:1008300031D0146800202BE04FF0010C0CFA00F3CB
:10084000B1F800C00CEA03069E4220D183004FF0AD
:100850000F0C0CFA03F7BC4305FA03FC4CEA040442
:1008600091F803C0BCF1280F06D14FF0010C0CFA2F
:1008700000FCC2F814C00AE091F803C0BCF1480FB4
:1008800005D14FF0010C0CFA00FCC2F810C0401C5E
:100890000828D1D31460B1F800C0BCF1FF0F34DDDB
:1008A000546800202EE000F1080C4FF0010808FA0F
:1008B0000CF3B1F800C00CEA03069E4221D183007C
:1008C0004FF00F0C0CFA03F7BC4305FA03FC4CEA9B
:1008D000040491F803C0BCF1280F05D100F1080C05
:1008E00008FA0CF8C2F8148091F803C0BCF1480F64
:1008F00007D100F1080C4FF0010808FA0CF8C2F813
:100900001080401C0828CED35460BDE8F0814FF61B
:10091000FF710180022181700421C170704702467D
:10092000002093680B4201D0012000E000207047B6
:100930000146886880B2704702460020D3680B42A7
:1009400001D0012000E0002070470146C86880B255
:10095000704701617047416170470AB1016100E071
:1009600041617047C16070474FF480320A43826131
:100970008161826182698269704702460020424B30
:1009800018684FF68073184040EA021008433E4B47
:10099000186070473D49C8617047F0B50A460023AA
:1009A00000240021002500F00046B6F1004F02D1DE
:1009B000354EF16901E0344E7168C0F3034583B2EE
:1009C00000F44016B6F5401F08D121F070612E4E9C
:1009D000766826F070662C4F7E6012E000F4801678
:1009E000B6F5801F06D1032606FA05F4A14341F0AF
:1009F000706106E0460D360103FA06F6B14341F098
:100A0000706122B1460D360103FA06F6314300F05B
:100A10000046B6F1004F02D11B4EF16101E01A4EC3
:100A20007160F0BD30B500228B071C0F0F2303FA55
:100A300004F2154B08338C1053F824309343124CB6
:100A400008348D1044F8253023468C1053F8243098
:100A50008C07240F00FA04F423430B4C08348D1048
:100A600044F8253030BD0A4908607047000801404D
:100A7000000C01400010014000140140001801402A
:100A8000001C014000200140000001400000204205
:100A9000DC002042DB48006840F00100D9490860D2
:100AA00008464068D8490840D6494860084600686A
:100AB000D6490840D34908600846006820F48020E1
:100AC00008600846406820F4FE0048604FF41F00AC
:100AD00088607047CB49096821F48031C94A1160A8
:100AE0001146096821F480211160B0F5803F03D0E0
:100AF000B0F5802F0ED106E0C249096841F480317B
:100B0000C04A116007E0BF49096841F4A021BD4A0D
:100B1000116000E000BF00BF704710B50146002221
:100B2000002300204A11012A02D1B64C236806E0B6
:100B3000022A02D1B34C236A01E0B24C636A01F08D
:100B40001F02012494401C4201D0012000E000203B
:100B500010BD70B500240025002600BF3120FFF72E
:100B6000DCFF0646641CB4F5A06F01D0002EF5D062
:100B70003120FFF7D2FF08B1012500E0002528460B
:100B800070BD014600209F4A106820F0F80040EA3E
:100B9000C100106070479E490860704702460020FF
:100BA000984B586820F47C1042EA01031843954B97
:100BB0005860704796490866704701460020914A80
:100BC000506820F003000843506070478D4840682B
:100BD00000F00C007047014600208A4A506820F05F
:100BE000F00008435060704701460020854A506875
:100BF00020F4E06008435060704701460020814ABD
:100C0000506820F4605040EAC1005060704729B13C
:100C10007C4A527A02437B4B5A7204E0794A527AF8
:100C20008243784B5A7270477A4908607047014690
:100C30000020744A506820F44040084350607047D8
:100C40000021754A11706F4A82F82010012802D0E5
:100C5000042808D103E001216F4A117004E0052146
:100C60006D4A117000E000BF00BF70476B4908601B
:100C700070476449096A0143624A116270476749D3
:100C800044390860704730B5002100220024002359
:100C90005C4D6D6805F00C0121B1042905D00829CF
:100CA00023D105E05E4D056022E05D4D05601FE04B
:100CB000544D6D6805F47012524D6D6805F4803422
:100CC000022505EB92421CB9564D554305600BE0D9
:100CD0004C4D6D6815F4003F03D0524D55430560EF
:100CE00002E04F4D5543056002E04D4D056000BFE9
:100CF00000BF444D6D6805F0F00109094A4D6B5C79
:100D00000568DD4045603F4D6D6805F4E061090A06
:100D1000454D6B5C4568DD4085603A4D6D6805F476
:100D20006051C90A404D6B5C4568DD40C560354D7A
:100D30006D6805F44041890B3C4D6B5CC568B5FBA3
:100D4000F3F5056130BD29B12E4A526902432D4B9E
:100D50005A6104E02B4A526982432A4B5A61704718
:100D600029B1284A92690243264B9A6104E0254A38
:100D700092698243234B9A61704729B1214AD26913
:100D80000243204BDA6104E01E4AD26982431D4BC4
:100D9000DA61704729B11B4AD2680243194BDA6005
:100DA00004E0184AD2688243164BDA60704729B1D2
:100DB000144A12690243134B1A6104E0114A126982
:100DC0008243104B1A6170471449403908607047DC
:100DD0000F49C86470470B49C87170470948406A99
:100DE00040F0807007494862704701460020054A7C
:100DF00092680A4201D0012000E0002070470149BA
:100E000088727047001002400000FFF8FFFFF6FEF6
:100E100000004242D8004242201002408004424278
:100E200000127A0000093D000000002010000020A0
:100E300010B50446BE48844208D101218014FFF752
:100E4000A9FF0021A014FFF7A5FF16E0B9488442CE
:100E500008D101210014FFF7AAFF00212014FFF799
:100E6000A6FF0AE0B448844207D10121C013FFF76E
:100E70009EFF0021E013FFF79AFF10BD10B500227E
:100E8000028802F441520B884C8823438C88234308
:100E9000CC8823430C8923434C8923438C892343E7
:100EA000CC8923431A430280838B4FF2FF74234083
:100EB00083830B8A038210BD2DE9F04F85B0054670
:100EC0000C464FF0000902274FF000084FF0010BCD
:100ED0000026B246A88B4FF240010840A8830220AA
:100EE0002884B5F81C90A068022801D100BF38E022
:100EF000A08810B94FF0010B01E04FF0020B8D48B4
:100F0000854200D100E000BF6846FFF7BCFEDDF877
:100F100000A0E088B0F5007F0AD14FEA1A2000EB6C
:100F200080004000A168B0FBF1F0401D86B20BE0EC
:100F30004FEA4B10BAFBF0F000EB80004000A168D4
:100F4000B0FBF1F0401D86B20A20B6FBF0F606F0C9
:100F50000108A6EB0800C0F34F074FF6FF7000EA48
:100F60000828022F01DBFF2F02DD02274FF00008C7
:100F7000E08840EA080038432884A088A189084313
:100F8000618808432188084340F4006040EA090969
:100F9000A5F81C9005B0BDE8F08F002101804180CC
:100FA0008180C180018141818181C18107210182CC
:100FB00070470021018041808180C18002218160D1
:100FC00000218181704721B1028842F040020280F5
:100FD00004E002884FF6BF731A400280704721B1C7
:100FE000828B42F48062828304E0828B4FF6FF336F
:100FF0001A408283704730B5002400230C1101256C
:10100000A540ABB21AB185881D43858002E0858872
:101010009D43858030BD1AB183880B43838002E0F5
:1010200083888B438380704781817047014688891C
:101030007047A1F57E42FF3A04D0028842F48072E4
:10104000028004E002884FF6FF631A400280704776
:1010500021B1828842F00402828004E082884FF647
:10106000FB731A408280704702884FF2FF731A4068
:10107000028002880A4302807047018841F480514F
:101080000180704721B1028842F40052028004E0DE
:1010900002884DF6FF731A40028070470246002016
:1010A000012901D0108B00E0908A70470146088A20
:1010B0007047B1F5804F04D1028842F4804202802B
:1010C00004E002884BF6FF731A4002807047024624
:1010D000002013890B4201D0012000E0002070475E
:1010E000CA4302817047F0B5024600200024002365
:1010F000002501F00F070126BE40B4B20B110126F6
:101100009E40B3B2968806EA03051689264202D0AD
:101110000DB1012000E00020F0BD10B5002201F06B
:101120000F040123A3409AB2D343038110BD0000F2
:101130000030014000380040003C004010B504463B
:10114000FE48844208D10121C014FFF723FE00218C
:10115000E014FFF71FFEC4E0B4F1804F08D1012175
:101160000846FFF724FE00210120FFF720FEB8E02B
:10117000F348844208D101210220FFF718FE002124
:101180000220FFF714FEACE0EE48844208D10121B2
:101190000420FFF70CFE00210420FFF708FEA0E06A
:1011A000E948844208D101210820FFF700FE002110
:1011B0000820FFF7FCFD94E0E448844208D10121B7
:1011C0001020FFF7F4FD00211020FFF7F0FD88E06C
:1011D000DF48844208D101212020FFF7E8FD0021EB
:1011E0002020FFF7E4FD7CE0DA48844208D10121A9
:1011F0004014FFF7CFFD00216014FFF7CBFD70E036
:10120000D548844209D10121C804FFF7C3FD00215C
:101210004FF40020FFF7BEFD63E0D048844209D1BF
:1012200001210805FFF7B6FD00214FF48010FFF7FC
:10123000B1FD56E0CA48844209D101214805FFF7B3
:10124000A9FD00214FF40010FFF7A4FD49E0C548B7
:10125000844208D101214020FFF7A9FD0021402050
:10126000FFF7A5FD3DE0C048844208D10121802060
:10127000FFF79DFD00218020FFF799FD31E0BB487D
:10128000844208D101218015FFF791FD0021A015AE
:10129000FFF78DFD25E0B648844209D101210804FD
:1012A000FFF778FD00214FF48030FFF773FD18E061
:1012B000B048844209D101214804FFF76BFD0021A9
:1012C0004FF40030FFF766FD0BE0AB48844208D1D5
:1012D00001218804FFF75EFD00214FF48020FFF715
:1012E00059FD10BD00220288944B98420ED0994BB4
:1012F00098420BD0B0F1804F08D0914B984205D066
:10130000904B984202D0904B984204D14FF68F7385
:101310001A404B881A438D4B984207D08C4B984209
:1013200004D04FF6FF431A40CB881A4302808B88C3
:1013300083850B880385814B98420BD0854B98425F
:1013400008D08B4B984205D08A4B984202D08A4BEA
:10135000984201D10B7A038601238382704770B5CE
:10136000002400220023058C4FF6FE7635400584CC
:10137000028C8388048B4FF68F752C40B51E2C4051
:101380000D882C43751E2A400D892A434D882A4317
:101390006A4DA8420BD06F4DA84208D0744DA842A8
:1013A00005D0744DA84202D0734DA84213D14FF618
:1013B000F7752A404D892A434FF6FB752A408D88E0
:1013C0002A434FF6FF652B404FF6FF552B408D8982
:1013D0002B43CD892B4383800483CD88858602846B
:1013E00070BD70B5002400220023058C4FF6EF7607
:1013F00035400584028C8388048B48F6FF752C40A9
:101400004FF6FF452C400D884FF6FF7606EA05257E
:101410002C434FF6DF752A400D8906EA05152A434D
:101420004D8806EA05152A43444DA84202D0494D8D
:10143000A8421DD14FF67F752A404D894FF6FF76A1
:1014400006EA05152A434FF6BF752A408D8806EA3D
:1014500005152A434FF6FF352B404FF2FF752B4001
:101460008D8906EA85052B43CD8906EA85052B4340
:1014700083800483CD880587028470BD70B5002405
:1014800000220023058C4FF6FF6635400584028C50
:101490008388848B4FF68F752C404FF6FC752C405B
:1014A0000D882C434FF6FF552A400D894FF6FF76E5
:1014B00006EA05252A434D8806EA05252A431F4DDD
:1014C000A84202D0234DA8421DD14FF2FF752A40F9
:1014D0004D894FF6FF7606EA05252A434FF6FF357C
:1014E0002A408D8806EA05252A434EF6FF752B40D3
:1014F0004DF6FF752B408D8906EA05152B43CD89E6
:1015000006EA05152B4383808483CD888587028472
:1015100070BD70B5002200230024058C4EF6FF76C6
:1015200035400584038C8488828B48F6FF752A40F9
:101530004FF6FF452A400D8820E00000002C0140B6
:101540000004004000080040000C00400010004073
:101550000014004000340140004C014000500140A4
:101560000054014000180040001C004000200040D2
:101570000040014000440140004801404FF6FF7622
:1015800006EA05252A434DF6FF752B400D8906EA2C
:1015900005352B434D8806EA05352B43FA4DA84205
:1015A00002D0FA4DA84208D14BF6FF752C408D8928
:1015B0004FF6FF7606EA85152C4384808283CD881A
:1015C000A0F84050038470BD828B4FF2FF331A4065
:1015D0008283828B4FF6FF7303EA01231A438283CF
:1015E0007047F0B50C461546002200210026078CF6
:1015F0004EF6FF7C07EA0C070784828B018C4FF6BE
:10160000FF7707EA043640F6FF473A404FF6FF7788
:1016100007EA05273A434FF6FF7707EA03373A43CD
:10162000D94FB8420ED0D94FB8420BD0B0F1804F4D
:1016300008D0D74FB84205D0D64FB84202D0D64FC7
:10164000B84206D14DF6FF77394046F4805739430A
:1016500005E047F6FF57394044F480573943828309
:101660000184F0BD828B4FF6F3731A408283828B24
:101670000A4382837047F0B50C46154600220021CC
:101680000026078C4FF6FF6C07EA0C070784828B55
:10169000018C4FF6FF7707EA04264FF60C773A40A5
:1016A0004FF6FF7707EA03172F433A43B64FB84286
:1016B0000ED0B64FB8420BD0B0F1804F08D0B44F27
:1016C000B84205D0B34FB84202D0B34FB84206D1AA
:1016D0004FF6FF57394046F48077394305E04FF223
:1016E000FF57394044F48077394382830184F0BD49
:1016F000028B4FF2FF331A400283028B4FF6FF73C7
:1017000003EA01231A4302837047F0B50C461546DD
:10171000002200210026078C4FF6EF7C07EA0C0719
:101720000784028B018C4FF6FF7707EA041640F618
:10173000FF473A404FF6FF7707EA03373A434FF641
:10174000FF7707EA05273A438F4FB8420ED08F4FF5
:10175000B8420BD0B0F1804F08D08D4FB84205D0C1
:101760008C4FB84202D08C4FB84206D14FF6DF778B
:10177000394046F01007394305E04FF65F773940AE
:1017800044F01007394302830184F0BD028B4FF609
:10179000F3731A400283028B0A4302837047F0B549
:1017A0000C46154600220021068C4FF6FE773E407F
:1017B0000684028B018C4FF60C7632407E1C06EAC2
:1017C00003162E433243704EB0420ED06F4EB042DD
:1017D0000BD0B0F1804F08D06D4EB04205D06D4EA9
:1017E000B04202D06C4EB04206D14FF6FD76314089
:1017F00044F00106314305E04FF6F576314044F000
:101800000106314302830184F0BD70B505460C46E4
:101810005D4885420ED05D4885420BD0B5F1804FC2
:1018200008D05B48854205D05A48854202D05A48C4
:10183000854200D100E000BF208850B92389A288EA
:1018400061882846FFF7ABFFE1882846FFF79EFF37
:1018500025E0208804280AD12389A28861882846A7
:10186000FFF753FFE1882846FFF742FF17E0208883
:1018700008280AD12389A28861882846FFF7FBFE41
:10188000E1882846FFF7EEFE09E02389A2886188F7
:101890002846FFF7A6FEE1882846FFF795FE70BDB3
:1018A0002DE9F04105460C4600260127608808B95D
:1018B000022600E00026A088012801D1022700E0CE
:1018C00001272088A0B92389A28861882846FFF7CC
:1018D00066FFE1882846FFF759FF23893A463146DB
:1018E0002846FFF712FFE1882846FFF701FF13E0C3
:1018F0002389A28861882846FFF707FFE1882846E8
:10190000FFF7F6FE23893A4631462846FFF747FFA0
:10191000E1882846FFF73AFFBDE8F0810A884B8846
:101920001A438B881A43CB881A430B891A434B8975
:101930001A438B891A43A0F8442070474FF6FF7171
:10194000818000210180C1804180017270470021A7
:10195000018041808180C180018141818181C1817B
:101960007047002101804180012181800021C180D8
:10197000018170470021018041808180C180018107
:101980004181818170470000002C014000340140FA
:101990000004004000080040000C004021B1028813
:1019A00042F00102028004E002884FF6FE731A4002
:1019B0000280704731B1B0F8442042F40042A0F8F0
:1019C000442005E0B0F84420C2F30E02A0F8442001
:1019D00070471AB183890B43838102E083898B436B
:1019E000838170478182704741EA0203A0F8483042
:1019F00070471AB183890B43838102E083898B434B
:101A00008381704701894FF6F87211400181704758
:101A10000A46002101894FF68F7319401143018155
:101A2000704730B504460D4629462046FFF7F0FFC3
:101A3000208940F00700208130BD2DE9F0410446A7
:101A40000D4616461F46602D06D13B460122314603
:101A50002046FFF75AFE05E03B460122314620466C
:101A6000FFF79DFE29462046FFF7D2FF208940F070
:101A700007002081BDE8F08130B50C4600210189C6
:101A8000C9B24FF6FF7505EA0325154325432943DF
:101A9000018130BD2DE9F04105460E4617469846B6
:101AA000002443463A4631462846FFF7E5FF2C8995
:101AB0004FF6F870044044F007044FF68F7004406E
:101AC00044F070042C81BDE8F081F0B504460D4669
:101AD00016461F463B46324629462046FFF7CCFFB6
:101AE000208940F480402081F0BD018582827047CA
:101AF0000A46002101884FF68F7319401143018077
:101B00007047F0B50C4615461E4600210022002302
:101B10000189028B038C4FF6F877394021434FF649
:101B2000FC473A4040F201173A434FF6DD773B401D
:101B30004FF6FF7707EA06172F433B4301810283E5
:101B40000384F0BD0A460021018B4FF68F731940C4
:101B50001143018370470A460021018B48F6FF7349
:101B600019404FF6FF7303EA0223194301837047BC
:101B70000A460021818B4FF68F73194011438183F0
:101B800070470A460021818B48F6FF7319404FF6D3
:101B9000FF7303EA022319438183704721B102884E
:101BA00042F08002028004E002884FF67F731A4000
:101BB0000280704721B1828842F00402828004E0F2
:101BC00082884FF6FB731A408280704721B1828869
:101BD00042F00802828004E082884FF6F7731A40D0
:101BE0008280704721B1828842F00102828004E045
:101BF00082884FF6FE731A40828070470A460021A1
:101C0000018B4FF6F77319401143018370470A4661
:101C10000021018B4FF2FF7319404FF6FF7303EA67
:101C200002231943018370470A460021818B4FF636
:101C3000F77319401143818370470A460021818B55
:101C40004FF2FF7319404FF6FF7303EA0223194363
:101C5000818370470A460021018B4FF6FB731940C0
:101C60001143018370470A460021018B4FF6FF3371
:101C700019404FF6FF7303EA0223194301837047AB
:101C80000A460021818B4FF6FB7319401143818373
:101C900070470A460021818B4FF6FF3319404FF6FB
:101CA000FF7303EA02231943818370470A46002128
:101CB000018B4FF67F7319401143018370470A4629
:101CC0000021018BC1F30E014FF6FF7303EA0223DB
:101CD0001943018370470A460021818B4FF67F73B9
:101CE00019401143818370470A460021818BC1F35B
:101CF0000E014FF6FF7303EA0223194381837047F5
:101D00000A460021018C4FF6FD73194011430184EE
:101D100070470A460021018C4FF6F77319401143B2
:101D2000018470470A460021018C4FF6DF73194089
:101D30004FF6FF7303EA02131943018470470A4602
:101D40000021018C4FF67F7319404FF6FF7303EAB1
:101D500002131943018470470A460021018C4FF693
:101D6000FF5319404FF6FF7303EA0223194301841E
:101D700070470A460021018C4FF2FF7319404FF65D
:101D8000FF7303EA02231943018470470A460021C6
:101D9000018C4DF6FF7319404FF6FF7303EA0233CF
:101DA00019430184704730B5002301248C40A3B24D
:101DB000048C9C430484048C02FA01F5ADB22C43DC
:101DC000048430BD30B5002304248C40A3B2048CBD
:101DD0009C430484048C02FA01F5ADB22C430484C4
:101DE00030BD70B503460020002418461830012588
:101DF0008D40ACB21D8CA5431D8409B1082909D1C1
:101E000000EB6100056825F0700505600568154365
:101E100005600EE00D1FC5F34E052844056825F446
:101E2000E045056005684FF6FF7606EA0226354371
:101E3000056070BD21B1028842F00202028004E018
:101E400002884FF6FD731A400280704721B1028864
:101E500042F00402028004E002884FF6FB731A404D
:101E60000280704721B1828842F08002828004E0C3
:101E700082884FF67F731A408280704702884FF63F
:101E8000F7731A40028002880A43028070478288F2
:101E90004FF68F731A40828082880A43828070478F
:101EA00002894FF6F8731A40028102890A430281BF
:101EB000704702894FF67F731A40028102890A43F4
:101EC00002817047818470478185704781867047A1
:101ED0000187704781877047A0F8401070470288DB
:101EE0004FF6FF431A40028002880A43028070477F
:101EF0000146888E70470146088F70470146888FDB
:101F000070470146B1F8400070470146888C704721
:101F10000146088D704702460020138A0B4201D00B
:101F2000012000E000207047CA430282704730B5AC
:101F30000246002000230024158A05EA0103958942
:101F400005EA010413B10CB1012000E0002030BD0E
:101F5000CA4302827047000010B50446FB48844221
:101F600009D101218803FEF715FF00214FF48040BD
:101F7000FEF710FF32E0F648844209D101214804FF
:101F8000FEF715FF00214FF40030FEF710FF25E0AB
:101F9000F048844209D101218804FEF708FF00219E
:101FA0004FF48020FEF703FF18E0EB48844209D18C
:101FB0000121C804FEF7FBFE00214FF40020FEF7CC
:101FC000F6FE0BE0E548844208D101210805FEF742
:101FD000EEFE00214FF48010FEF7E9FE10BD2DE962
:101FE000F04786B005460E460024A24600BFA14633
:101FF0000027B08900B100BF2F462C8A4CF6FF7035
:102000000440F08804432C82AC894EF6F31004405F
:10201000B08831890843718908430443AC81AC8A94
:102020004FF6FF400440B0890443AC8201A8FEF79C
:102030002AFEC648874202D1DDF810A001E0DDF893
:102040000CA0A88910F4004F08D00AEBCA0000EBDE
:102050000A1031684900B0FBF1F807E00AEBCA004A
:1020600000EB0A1031688900B0FBF1F86420B8FB7E
:10207000F0F004012009642101FB1089A88910F403
:10208000004F08D0322000EBC900B0FBF1F000F0A7
:102090000700044308E0322000EB09106421B0FB84
:1020A000F1F000F00F0004432C8106B0BDE8F0878A
:1020B0004FF41651016000218180C18001810C2103
:1020C000418100218181704710B502460020108AAD
:1020D0004FF2FF0318400B884C8823438C8823431E
:1020E000CC8823431843108210BD00210180418019
:1020F0008180C180704721B1828942F4005282817F
:1021000004E082894DF6FF731A4082817047F0B572
:1021100003460024002600250020A1F510676A3F31
:1021200000D100BF1846C1F3421401F01F06012779
:1021300007FA06F5012C01D10C3004E0022C01D184
:10214000103000E014301AB107682F43076002E036
:102150000768AF430760F0BD1AB1838A0B438382DF
:1021600002E0838A8B4383827047028A4FF6F073C2
:102170001A400282028A0A430282704782894FF221
:10218000FF731A40828182890A438281704721B19C
:10219000828942F00202828104E082894FF6FD7357
:1021A0001A4082817047028A4FF6DF731A4002821A
:1021B000028A0A430282704721B1028A42F48042B5
:1021C000028204E0028A4BF6FF731A4002827047D3
:1021D000C1F308028280704701468888C0F3080076
:1021E0007047818941F0010181817047028BD2B231
:1021F0000283028B42EA012202837047028B02F4BF
:102200007F420283028B0A430283704721B1828A94
:1022100042F02002828204E0828A4FF6DF731A4085
:102220008282704721B1828A42F01002828204E0E9
:10223000828A4FF6EF731A408282704721B1828AF8
:1022400042F00802828204E0828A4FF6F7731A4055
:102250008282704721B1828942F40042828103E088
:102260008289C2F30E028281704721B1828A42F4D0
:102270000062828204E0828A4FF2FF731A408282F7
:102280007047828A4FF6FB731A408282828A0A4321
:102290008282704721B1828A42F00202828204E087
:1022A000828A4FF6FD731A408282704702460020F0
:1022B000B1F5007F00D100BF13880B4201D001208F
:1022C00000E00020704701F40072B2F5007F00D1F9
:1022D00000BFCA430280704770B502460024002345
:1022E00000250020A1F510666A3E00D100BFC1F3B1
:1022F000421501F01F03012606FA03F3012D02D156
:102300009689334006E0022D02D1168A334001E05F
:10231000968A33400C12012606FA04F416883440DB
:1023200013B10CB1012000E0002070BD10B50022F7
:102330000023A1F510646A3C00D100BF0A120124F9
:102340009440A3B2DC43048010BD0000003801407B
:102350000044004000480040004C00400050004055
:1023600008B501210520FEF7FBFC01218B48FEF793
:1023700014FB01218A48FEF710FB4FF40140ADF831
:10238000000003208DF8020010208DF8030069463C
:102390008448FEF733FA01210920FEF7E1FC48F2F8
:1023A0003800ADF8000003208DF8020010208DF8F1
:1023B000030069467C48FEF721FA08BD10B57B484A
:1023C000007811287AD2DFE800F0DD0916253241C5
:1023D0004E5D6A7A8796A3B2BBC6CF007448408828
:1023E0004FF080418885C9136F48FEF7B2FA01208B
:1023F00070490870C7E06E48408840F6C911081A55
:1024000089078885C9136848FEF7A5FA012069493C
:102410000870B8E0664880884FF08041888589154B
:102420006048FEF796FA012062490870ABE0604808
:10243000808840F6C911081A890788858915594886
:10244000FEF789FA01205B4908709CE05848C08873
:102450004FF08041888520215348FEF77AFA012009
:10246000544908708FE05248C08840F6C911081AD4
:102470008907888520214C48FEF76DFA01204D49D7
:10248000087080E04A4800894FF08041888510211B
:102490004548FEF75EFA01204649087073E044485B
:1024A000008940F6C911081A8907888510213E481D
:1024B000FEF751FA01203F49087064E062E03C48B1
:1024C00040894FF08041888508213748FEF741FA5E
:1024D00001203849087056E03548408940F6C91156
:1024E000081A8907888508212F48FEF734FA012049
:1024F0003049087047E02E4880894FF08041888538
:10250000C9132848FEF725FA01202A4908703AE045
:102510002748808940F6C911081A89078885C91398
:102520002048FEF718FA0120224908702BE02048C5
:10253000C0894FF08041888501201E49087022E043
:102540001B48C08940F6C911081A890788850120EF
:102550001849087017E01648008A4FF080418885B6
:102560000120144908700EE01148008A40F6C91194
:10257000081A8907888501200E49087000200B4938
:10258000087000E000BF00BF10BD10B5074800781C
:10259000401C06490870FFF711FF10BD0002300013
:1025A0000004300000080140000C0140140000202D
:1025B000DE0000202201002008B54FF4A060FDF7E6
:1025C00031FE1C208DF8000000208DF801008DF8F0
:1025D000020001208DF803006846FDF728FE08BDC3
:1025E00008B54FF4A060FDF71DFE1D208DF800001A
:1025F00000208DF8010001208DF802008DF8030005
:102600006846FDF714FE08BD08B54FF4A060FDF75D
:1026100009FE1E208DF8000000208DF80100022028
:102620008DF8020001208DF803006846FDF7FFFDDC
:1026300008BD0EB501210846FEF79FFB4FF0804014
:10264000FEF77CFD40F6C910ADF804004720ADF858
:10265000000000208DF80800ADF80600ADF802007B
:1026600069464FF08040FEF73DFE01218807FFF7E5
:102670005BFC012211469007FFF7ABF900214FF0F8
:102680008040FFF78BF90EBD0EB501210220FEF749
:1026900074FB4748FEF752FD0920ADF804004720BF
:1026A000ADF800000020ADF806008DF80800ADF888
:1026B000020069463E48FEF715FE01213C48FFF73F
:1026C00033FC012211463A48FFF783F900213848CC
:1026D000FFF764F90EBD0EB501210420FEF74DFB96
:1026E0003448FEF72BFD4FF4FA60ADF804004720A4
:1026F000ADF800000020ADF806008DF80800ADF838
:10270000020069462B48FEF7EDFD01212948FFF73D
:102710000BFC012211462748FFF75BF900212548F1
:10272000FFF73CF90EBD0EB501210820FEF725FB91
:102730002148FEF703FD4FF6FF70ADF80400472077
:10274000ADF800000020ADF80600ADF802006946C3
:102750001948FEF7C7FD01211748FFF7E5FB0122E5
:1027600011461548FFF735F900211348FFF716F910
:102770000EBD10B5FFF720FFFFF75BFFFFF744FF2B
:10278000FFF7A9FF10BD10B501218807FFF706F973
:1027900001210848FFF702F910BD10B500214FF0E4
:1027A0008040FFF7FBF800210248FFF7F7F810BD63
:1027B0000004004000080040000C004008B5012162
:1027C0000420FEF7CDFA4FF48040ADF80000282039
:1027D0008DF8030069466B48FEF710F84FF460501F
:1027E000ADF8000010208DF8030003208DF80200E2
:1027F00069466448FEF702F808BD70B50546012435
:1028000000206149487000BF28E02C4203D001201D
:102810005E49086002E000205C4908604FF001005A
:102820005B4908604FF0320000F0C5FF00205949B5
:10283000C1F8AC01322000F0BEFF01205549C1F8BB
:10284000AC010846D0F8380120B14F484078204309
:102850004D4948704FF6FF7000EA4404FF2CD4DD68
:1028600070BD10B500204C4908604C490878FFF74E
:10287000C4FF4A494878FFF7C0FF01204549C1F825
:10288000B00141484078732801D1002010BD0120DB
:10289000FCE770B50024012500203F4908603F494E
:1028A0000878FFF7AAFF3D494878FFF7A6FF022402
:1028B00025E001251CE00120354908604FF00000AB
:1028C0003449C1F8AC014FF0320000F074FF012030
:1028D0003049C1F8AC010846D0F8380120B12A4887
:1028E000005D2843284908554FF6FF7000EA45056A
:1028F000FF2DE0DD322000F05EFF601CC4B2092C29
:10290000D7DB01202449086070BD002004E00021CD
:102910001D4A1154411CC8B20928F8DB704710B594
:10292000FFF7F3FFFFF7B5FF1748C078164909799D
:1029300040EA01201A49088000241BE0194810F8D9
:102940001400401E012101FA00F0154909880842CF
:102950000ED1144810F81400401E012101FA00F0B5
:102960000F490978084010490870601CC0B210BDBA
:10297000601CC4B2102CE1DB0020F8E701460248DD
:10298000405C70470008014090010020B4012142E2
:10299000AC01214200002142B00121421800002078
:1029A0003C0000201A0000203A00002008B5012158
:1029B0000820FEF7D5F94FF48040ADF80000102054
:1029C0008DF8030003208DF8020069461748FDF7D3
:1029D00015FF4FF480411548FDF7BBFF08BD10B54A
:1029E0004FF480411148FDF7B6FF4FF4FA7000F044
:1029F000FAFE4FF480410D48FDF7ABFF4FF4FA703B
:102A000000F0F1FE4FF480410848FDF7A4FF4FF4B9
:102A1000FA7000F0E8FE4FF480410448FDF799FF9A
:102A20004FF4FA7000F0DFFE10BD0000000C014012
:102A300070B50546002405E0601CC4B2C82C01DD59
:102A4000002070BD02212F48FEF741FB0028F3D083
:102A500029462C48FEF7E8FA002405E0601CC4B2C1
:102A6000C82C01DD0020ECE701212648FEF72FFBF2
:102A70000028F3D02348FEF7D9FAC0B2E1E708B541
:102A8000012141F20400FEF76BF9E020ADF80000EF
:102A900018208DF8030003208DF8020069461A48BB
:102AA000FDF7ACFEE0211848FDF753FF0020174961
:102AB00008804FF482704880002088800220C880FF
:102AC0000120088140024881382088810020C88187
:102AD000072008820B48FEF7D1F901210948FEF7CB
:102AE00072FAFF20FFF7A4FF08BD10B5044607489F
:102AF000848101460348FEF7C1F901210148FEF730
:102B000062FA10BD00300140000801409A01002027
:102B100010B500240020D14908604FF09000FFF765
:102B200087FF0020FFF784FF0020FFF781FF0020D0
:102B3000FFF77EFFFF20FFF77BFF44EA0024FF2022
:102B4000FFF776FF04430120C549C1F8B0012046D4
:102B500010BD08B501210820FEF702F94FF480509E
:102B6000ADF8000010208DF8030003208DF802005E
:102B70006946BC48FDF742FE4FF48051B948FDF765
:102B8000E8FEFFF77CFF0820FFF7AFFFFFF7C0FF6D
:102B9000B549088008BD10B500240020AF49086081
:102BA0004FF00500FFF744FFFF20FFF741FF044609
:102BB0000120AB49C1F8B001204610BD10B5044654
:102BC0000020A64908604FF00100FFF731FF2046C2
:102BD000FFF72EFF0120A249C1F8B00110BD10B5CA
:102BE00000209E4908604FF00600FFF721FF0120FA
:102BF0009B49C1F8B00110BD10B50020974908608D
:102C00004FF00400FFF714FF01209549C1F8B0010F
:102C100010BD2DE9F04106460C46174600208F49AD
:102C200008604FF00300FFF703FFC4F30740FFF70E
:102C3000FFFEC4F30720FFF7FBFEE0B2FFF7F8FE4C
:102C4000002505E0FF20FFF7F3FE7055681C85B2F4
:102C5000BD42F7DB012081490860BDE8F08110B575
:102C600000BFFFF798FF10F0010FFAD110BD2DE95A
:102C7000F04106460C461746FFF7B1FF00207749A2
:102C800008604FF00200FFF7D3FEC4F30740FFF7E0
:102C9000CFFEC4F30720FFF7CBFEE0B2FFF7C8FE7C
:102CA000002504E0705DFFF7C3FE681C85B2BD42DD
:102CB000F8DB012069490860FFF7D1FFBDE8F0812A
:102CC0002DE9F04107460E461446F0B2C0F5807576
:102CD000AC4200DC254612E02A4631463846FFF772
:102CE000C6FFAC4200D10BE02F442E44601B84B2DF
:102CF000B4F5807F02DD4FF4807500E02546EBE7F8
:102D000000BFBDE8F08110B504462403FFF767FF5C
:102D1000FFF7A5FF0020514908604FF02000FFF7A2
:102D200087FEC4F30740FFF783FEC4F30720FFF7D5
:102D30007FFEE0B2FFF77CFE01204949C1F8B001F7
:102D4000FFF78DFF10BD2DE9F04781460F4616466F
:102D50004FEA1738C7F30B0ACAF58054A64200DCC5
:102D6000344644E04FEA08314FF480523F48FFF7C1
:102D700050FF002508E00AEB05003C49085CFF28ED
:102D800000D003E0681C85B2A542F4DB00BFA54279
:102D900016DA4046FFF7B7FF002507E019F80500EF
:102DA00005EB0A01314A5054681C85B2A542F5DB97
:102DB0004FEA08314FF480522C48FFF781FF04E0BE
:102DC000224639464846FFF77BFFA64200D10FE076
:102DD00008F101084FF0000AA1442744301B86B2D5
:102DE000B6F5805F02DD4FF4805400E03446B9E769
:102DF00000BFBDE8F08710B5FFF7F1FEFFF72FFF2A
:102E00000020164908604FF0C700FFF711FE0120AF
:102E10001349C1F8B001FFF722FF10BD10B5002023
:102E20000E4908604FF0B900FFF702FE01200C497F
:102E3000C1F8B001032000F0BEFC10BD10B50020A9
:102E4000064908604FF0AB00FFF7F2FD012004498E
:102E5000C1F8B001032000F0AEFC10BDB0812142EA
:102E600000802142000C01403E000020AC01002007
:102E70000146A1F130020A2A1AD2DFE802F0050762
:102E8000090B0D0F11131517002011E001200FE0A1
:102E900002200DE003200BE0042009E0052007E0FC
:102EA000062005E0072003E0082001E0092000BF1C
:102EB00000BF7047F0B585B005460E461421684640
:102EC00002F095FD0024002700BF0CE00A20B5FBAE
:102ED000F0F100FB115030300DF80400601CC4B25A
:102EE0000A20B5FBF0F5002DF0D12746002406E0BE
:102EF000381B401E1DF800003055601CC4B2BC4297
:102F0000F6DB0020305505B0F0BD000010B5002400
:102F1000FE48007888BBFE480078072822DAFC4883
:102F20000078401CFA490870FA480078401CF949BA
:102F3000087008460078072801D100200870002496
:102F40000DE0F54830F81400F249097801EBC101B1
:102F5000F24A02EB410121F81400601CC4B2092CB2
:102F6000EFDB02E00020EE490870E9480078002815
:102F700034DD0120EB49087030E0FFE7EA48006BE0
:102F8000B0F5FA4F24D2E84890F8300010F00F0F57
:102F900004D1E549096B0809FFF7B5FEE248006B6B
:102FA00001024FF48072E148FFF7CDFEDE48006B6E
:102FB000401CDD490863DE48006840F00100DC4940
:102FC0000860DC48007820F00100DA49087005E06C
:102FD000D848007840F00100D649087010BDCE48AE
:102FE000D549097830F81100D449D34A127821F82C
:102FF0001200704770B5054600242321284602F0D0
:103000001CFC04460CB9012070BD641C20783028DB
:1030100005DB2078392802DC607850280ED0207833
:1030200030280DDB207839280ADC6078302807D179
:103030006078392804DCA078502801D10020E3E72B
:1030400020784D2801D10020DEE7BDA1284602F0FE
:10305000FEFB90B1B648006840F40050B4490860E7
:103060007821BA4802F0A1FC0020B9498872B9A1C0
:10307000BA4800F043FD0120C6E7B9A1284602F096
:10308000E6FB50B1AA48006840F48040A8490860B7
:103090000020AF49C8720120B6E7B4A1284602F06B
:1030A000D6FB040010D0A248006840F40040A049BC
:1030B00008600020A649C87204F1080002F0B0FBC5
:1030C000A349087301209FE7ABA1284602F0BFFB8C
:1030D00070B18E48007818B10120A949087005E048
:1030E0000120A849087000208E49087001208BE754
:1030F000A5A1284602F0ABFBB8B101F02DF93421AF
:10310000894802F074FCA248406A8749C862A04816
:10311000406A086301207D4908708548006840F0D6
:1031200001008349086001206EE79AA1284602F059
:103130008EFB60B100209949088074490870012015
:103140009049087000207749087001205CE794A13D
:10315000284602F07CFB70B10020894908706B4959
:103160000870914908707248006840F0100070497A
:103170000860012048E78DA1284602F068FBA0B155
:103180000020624908708B49087001207D49087051
:1031900000206449087001F0DFF86548006840F0DD
:1031A00020006349086001202EE783A1284602F031
:1031B0004EFB04001CD000205449087001207A49BD
:1031C00008707049087000205649087001F0C4F872
:1031D000E01D02F025FB5E498872887A01F01EF935
:1031E0005348006840F040005149086001200BE757
:1031F00073A1284602F02BFB88B140F2DF70FFF785
:1032000082FD4FF4807270494848FFF79CFD4848A2
:10321000006840F48050464908600120F4E66BA144
:10322000284602F014FB040023D000203749087020
:1032300004F1080002F0F4FA45494860486801F0DA
:10324000EDF865A1284602F002FB0446A01C02F03E
:10325000E7FA354948853648006840F0800034492F
:10326000086001204749087000202E49087001209D
:10327000CAE65AA1284602F0EAFAB0B10020234972
:10328000087001F069F80120414981F82D002848B3
:10329000006840F4807026490860012039490870B0
:1032A0000020204908700120AEE64BA1284602F01C
:1032B000CEFA040028D000201449087001F04CF820
:1032C00049A1284602F0C3FA0446601C02F0A8FA9D
:1032D0001F494860486801F0A1F83FA1284602F064
:1032E000B6FA0446A01C02F09BFA1949087210486D
:1032F000006840F400700E49086001203B490870E6
:1033000020490870002073E076E000002A010020C8
:103310001C0100201F010020F000002060000020A0
:10332000230100202401002020140020F811002097
:10333000340100203C01002041000020DE0000207C
:10334000233235355052414400000000191300204B
:10335000541400202350574D520000000038014003
:103360002332353550554C4B0000000023323535A3
:10337000504D4F44000000002353746F7000000054
:103380002F0100202101002023446F776E000000F0
:10339000F01300202353544F500000003801002048
:1033A00023566572692B00002D01002023466C69AD
:1033B000737400002B0100202346526561642D00C8
:1033C000235053320000000000F07D0023456E6161
:1033D000626C6523000000004743000023446973CA
:1033E00061626C65000000002300000030010020D5
:1033F0007B490870012007E67AA1284602F027FAE7
:10340000040017D000207949087000F0A5FFA01D26
:1034100002F006FA764948727648006840F4806007
:103420007449086001207449087000206C490870D4
:103430000120E9E571A1284602F009FA68B16D485A
:10344000006840F400606B49086001206A49087018
:103450000020634908700120D6E56AA1284602F0E1
:10346000F6F938B16348006840F48030614908607B
:103470000120C9E566A1284602F0E9F938B15D48A6
:10348000006840F400305B4908600120BCE5002082
:10349000BAE52DE9FE4F044600260027B046B146A6
:1034A000B246B346002002900190009000252046CD
:1034B000FFF7A0FD08B1BDE8FE8F2146574800F098
:1034C0001DFB042256A1204602F0F2F960B94748DC
:1034D000007810B1FFF71AFD7FE04648006840F021
:1034E00008004449086078E072E00298012811D190
:1034F000605D50280CD0605D4D2809D0605DFFF7FD
:10350000B7FC814606EB860009EB4000C6B201E03D
:1035100000200290019801282DD1605D542801D02F
:10352000012000E00020615D232901D0012100E09D
:1035300000210840691E615C4D2901D0012100E095
:103540000021084209D0605DFFF792FC824607EB3C
:1035500087000AEB400087B20DE00020019040F6A2
:10356000C410874200DD07462F4820F816702F4808
:103570000670002700260098012818D1605DFFF72B
:1035800077FC834608EB88000BEB40001FFA80F8BD
:103590002548A0F80080681C205C0D2807D1B8F1F0
:1035A000640F02DCFFF71BFD01E0FFF7AFFC605D7D
:1035B000232801D101200290605D502801D1012013
:1035C0000190605D542801D101200090681C85B2F3
:1035D000605D0A2801D0FF2D87DB00BF6BE700008C
:1035E00024010020234644656C2D00002A010020A0
:1035F00054140020340100202101002023466F7262
:103600006D61740023464D51454E41424C450000CA
:1036100023464D5144495341424C45000048004027
:10362000234D503300000000F00000204100002036
:1036300008B501210820FDF793FB4FF40050ADF8C9
:10364000000010208DF8030003208DF80200694669
:103650000E48FDF7D3F84FF400510C48FDF779F907
:1036600008BD10B54FF400510848FDF774F94FF448
:10367000FA7000F0B8F84FF400510448FDF769F90A
:103680004FF4FA7000F0AFF810BD0000000C0140DC
:1036900000B587B001214FF40170FDF761FB4FF4D5
:1036A0000040FDF7C4FA1020ADF8040000208DF8AA
:1036B000070001A92348FDF7A1F82348FCF720FEE5
:1036C000002002908DF80C008DF80D004FF4602062
:1036D00004900020059001208DF8180002A91A48D6
:1036E000FCF735FE01211848FCF75DFE1648FCF793
:1036F0007CFE00BF1448FCF77DFE0028FAD112487A
:10370000FCF782FE00BF1048FCF783FE0028FAD1C8
:1037100007B000BD10B504460723012221460A4820
:10372000FCF7ADFE01210848FCF77DFE00BF022139
:103730000548FCF7D3FF0028F9D00348FCF706FF43
:1037400010BD0000000801400024014030B5384899
:103750000068384AB0FBF2F1B1F1807F01D301205B
:103760001DE021F07F40401E4FF0E02250615017D5
:103770000F22002807DA13071D0E2F4B00F00F044D
:10378000241F1D5503E013071C0E2C4B1C5400BFB7
:1037900000204FF0E022906107201061002008B166
:1037A00000BFFEE74FF0E020006920F001004FF07D
:1037B000E021086130BD224908604FF0E02109692D
:1037C00041F001014FF0E022116100BF1C4909687E
:1037D0000029FBD14FF0E021096921F001014FF0F0
:1037E000E022116170474FF47A714143144A11602D
:1037F0004FF0E021096941F001014FF0E022116131
:1038000000BF0F4909680029FBD14FF0E021096989
:1038100021F001014FF0E022116170470848006873
:1038200020B107480068401E054908607047000045
:103830007C01002040420F0018ED00E000E400E0B1
:1038400048000020014600BF704700BFFD4A1288B3
:1038500012F0400FFAD0C2B2FA4B1B1D1A8070470B
:1038600008B54FF4A060FCF7DDFC25208DF80000C2
:1038700001208DF8010000208DF8020001208DF854
:1038800003006846FCF7D3FC08BD08B54FF4A06000
:10389000FCF7C8FC26208DF8000001208DF80100FF
:1038A0008DF802008DF803006846FCF7C0FC08BDE7
:1038B00008B54FF4A060FCF7B5FC27208DF8000098
:1038C00001208DF8010002208DF8020001208DF802
:1038D00003006846FCF7ABFC08BD08B5012144F2C3
:1038E0000400FDF73DFA4FF40070ADF8000003202E
:1038F0008DF8020018208DF803006946D248FCF7C5
:103900007DFF4FF48060ADF8000004208DF80300C7
:103910006946CD48FCF772FF08BD08B501210420B7
:10392000FDF71EFA01214804FDF727FA0420ADF83F
:10393000000003208DF8020018208DF8030069466E
:10394000C148FCF75BFF0820ADF8000004208DF8AB
:1039500003006946BC48FCF751FF08BD08B50121CA
:103960000820FDF7FDF901218804FDF706FA4FF460
:103970008060ADF8000018208DF8030003208DF85A
:1039800002006946B148FCF739FF08BD10B504468E
:10399000012C04D1FFF764FFFFF79FFF0CE0022C1E
:1039A00004D1FFF772FFFFF7B8FF05E0032C03D146
:1039B000FFF77EFFFFF7D2FF10BD7FB505460C462F
:1039C00000940020ADF80400ADF80600ADF8080042
:1039D000ADF80C000C20ADF80A0069462846FEF749
:1039E000FEFA012240F225512846FEF790FB012104
:1039F0002846FEF780FB7FBD1FB5044600940020DB
:103A0000ADF80400ADF80600ADF80800ADF80C0004
:103A10000C20ADF80A0069468D48FEF7E0FA012255
:103A200040F225518A48FEF772FB01218848FEF7D3
:103A300005FC01218648FEF75EFB1FBD10B586B070
:103A40000446012144F20400FDF78AF94FF40070A6
:103A5000ADF8140003208DF8160018208DF817001B
:103A600005A97948FCF7CAFE4FF48060ADF8140050
:103A700004208DF8170005A97348FCF7BFFE4FF42A
:103A8000A060FCF7CFFB25208DF8000001208DF809
:103A9000010000208DF8020001208DF80300684627
:103AA000FCF7C5FB01940020ADF80800ADF80A0052
:103AB000ADF80C00ADF810000C20ADF80E0001A917
:103AC0006048FEF78CFA012240F225515D48FEF76E
:103AD0001EFB01215B48FEF70EFB06B010BD70B562
:103AE00004460D4629462046FEF772FB00BF4021E2
:103AF0002046FEF7DBFB0028F9D070BD70B5064606
:103B00000C46002505E014F8011B3046FFF7E7FFDF
:103B10006D1C207810B1B5F5FA7FF4D370BD10B5E7
:103B200086B00446142101A801F061FF01A92046D6
:103B3000FFF7C0F901A94348FFF7E0FF06B010BD49
:103B400070B504460D4621463E48FFF7D7FF28468C
:103B5000FFF7E5FF3FA13B48FFF7D0FF70BD10B571
:103B600008213848FEF7A2FB18B108213548FEF7B6
:103B7000AAFB40F225513348FEF7AEFB002836D0B1
:103B800040F225512F48FEF7D1FB2E48FEF724FBCB
:103B9000C4B23148007810BB3048314909684454F8
:103BA0002F480068401C2E49086008460068401EE7
:103BB0002A49085C0A2804D029480068B0F5807FAB
:103BC00015D900202549264A126888540120224927
:103BD00008702449087000202149086007E0224845
:103BE000007820B1532C02D101202049087010BD6B
:103BF00010B540F225511E48FEF76EFBE0B340F2CF
:103C000025511B48FEF792FB1948FEF7E5FAC4B2AE
:103C10001148007880BB114816490968445415487A
:103C20000068401C1349086008460068401E0B49A4
:103C3000085C0A2804D00F480068B0F5807F28D9B6
:103C400000201AE00038014000080140000C01404B
:103C5000004800400A0000004C000020F81100203D
:103C600050000020200100202A0100202F01002008
:103C700000440040540000200BE02849284A126804
:103C800088540120274908702749087000202449DA
:103C9000086010BD10B5002440F225512348FEF7FE
:103CA0001BFB002833D040F225512048FEF73EFB95
:103CB0001E48FEF791FAC4B21D48007838BB232C89
:103CC00006D100201B4908701B480978445415E0B0
:103CD00018480078401E1849085C0D280ED10020B5
:103CE000144A1278885401201149087000201149A3
:103CF00008704FF480411148FCF72DFE0E480D4925
:103D0000097844540B480078401C0A49087010BDDB
:103D100010B50248FFF7BDFB10BD0000F8110020F0
:103D2000540000204C0000202001002000480040EA
:103D3000310100205800002091130020000C0140A8
:103D40007FB500260024002000900190029003908F
:103D50000025FE480078002877D00020FB49087035
:103D6000FEF7DDFDFA490860FEF77BFDF9490870B2
:103D700008460078002869D1F7480068F4490968C6
:103D8000884200D17FBDF2480068F3490860F048DE
:103D90000068401F0C2876D2DFE800F006210F18DB
:103DA000596B4E622A45333C0020EC4908604FF4C1
:103DB0009670FFF718FD012669E00020E7490860CA
:103DC0004FF49670FFF70FFD022660E00020E349F4
:103DD00008604FF49670FFF706FD032657E00020B9
:103DE000DE4908604FF49670FFF7FDFC04264EE0B4
:103DF0000020DA4908604FF49670FFF7F4FC0726BC
:103E000045E00020D54908604FF49670FFF7EBFCC1
:103E100008263CE00020D14908604FF49670FFF777
:103E2000E2FC092633E00020CC4908604FF496708C
:103E3000FFF7D9FC0A262AE00020C84908604FF4A1
:103E40009670FFF7D0FC062621E067E067E00020CF
:103E5000C24908604FF49670FFF7C5FC052616E0CE
:103E60000020BE4908604FF49670FFF7BCFC0C269A
:103E70000DE00020B94908604FF49670FFF7B3FCDD
:103E80000B2604E0FFE70120B449086000BF00BF33
:103E9000002E43D00120B2490870B2490870782240
:103EA000B149B248FEF7B5FE3246B1A1684601F00D
:103EB00031FC6946AF48FFF721FE6946AB4801F087
:103EC000C6FC0446002CE4D0684601F0D2FC044451
:103ED00009E014F8010B0DF80500681CC5B2207844
:103EE000232800D104E00E2D02DA20780028F0D13A
:103EF00000BF0C2D0EDA0D200DF805000A21681CFC
:103F00000DF800100F2269469B4801F01CFD0120AE
:103F10009A49087098499748FFF7F0FD1AE28D48D2
:103F200000780128FAD18A480068401F0C287AD20C
:103F3000DFE800F02D7A0652F0EFEEED9FECC6F1CF
:103F40008F4880880A308E4988800846808840F6ED
:103F5000FC01884202DB084689498880894800685C
:103F60000A30884908600846006840F6980188428F
:103F700002D3084683490860824883A102686846E4
:103F800001F0C8FB69468348FFF7B8FDE1E17C48D2
:103F900080880A387A49888008468088B0F52F7F63
:103FA00002DC4FF42F708880764800680A38754923
:103FB000086008460068B0F52F7F02D84FF42F70D4
:103FC0000860704870A10268684601F0A3FB69466A
:103FD0007048FFF793FDBCE1694840880A306849A2
:103FE00048800846408840F6FC01884202DB0846CB
:103FF00063494880684800680A3067490860084695
:10400000006840F69801884202D308466249086079
:10401000614862A10268684601F07CFB69465D4820
:10402000FFF76CFD95E193E1554840880A38544903
:10403000488008464088B0F52F7F02DC4FF42F708F
:104040004880554800680A385349086008460068A7
:10405000B0F52F7F02D84FF42F7008604E484FA163
:104060000268684601F056FB69464A48FFF746FD7C
:104070006FE14348C0880A304149C8800846C0887B
:1040800040F6FC01884202DB08463D49C8804648AC
:1040900000680A30444908600846006840F6980104
:1040A000884202D30846404908603F483FA1026861
:1040B000684601F02FFB69463648FFF71FFD48E1CF
:1040C0002F48C0880A382E49C8800846C088B0F5F5
:1040D0002F7F02DC4FF42F70C880334800680A3805
:1040E0003149086008460068B0F52F7F02D84FF4C8
:1040F0002F7008602C482DA10268684601F00AFB69
:1041000069462448FFF7FAFC23E104E063E0D3E0CA
:1041100086E0F8E0ABE01A4800890A3018490881C7
:104120000846008940F6FC01884202DB0846144933
:104130000881214800680A301F4908600846006865
:1041400040F6FC0188423BD3084637E03A010020A4
:10415000640100204C01002068010020B48121424C
:10416000330100202001002000F07D001913002001
:1041700025644B0000380140F81100204C0000205D
:10418000DE00002008010020233250256454310D48
:104190000A0000000048004004010020233150259F
:1041A0006454310D0A0000000C0100202333502517
:1041B0006454310D0A00000010010020F749086026
:1041C000F648F7A10268684601F0A4FA6946F74884
:1041D000FFF794FCBDE0F64800890A38F4490881ED
:1041E00008460089B0F52F7F02DC4FF42F7008815C
:1041F000EA4800680A38E949086008460068B0F5EE
:104200002F7F02D84FF42F700860E448E4A10268C1
:10421000684601F07FFA6946E448FFF76FFC98E0D2
:10422000E34840890A30E24948810846408940F61F
:10423000FC01884202DB0846DD494881DD48006810
:104240000A30DC4908600846006840F69801884258
:1042500002D30846D7490860D648D7A10268684605
:1042600001F058FA6946D148FFF748FC71E0D048A0
:1042700040890A38CE49488108464089B0F52F7FE9
:1042800002DC4FF42F704881CA4800680A38C949D7
:10429000086008460068B0F52F7F02D84FF42F70F1
:1042A0000860C448C4A10268684601F033FA694650
:1042B000BE48FFF723FC4CE0BD4880890A30BC496A
:1042C00088810846808940F6FC01884202DB084666
:1042D000B7498881BB4800680A30BA490860084677
:1042E000006840F6FC01884202D30846B5490860E0
:1042F000B448B5A10268684601F00CFA6946AB48BB
:10430000FFF7FCFB25E0AA4880890A38A849888184
:1043100008468089B0F52F7F02DC4FF42F7088812A
:10432000A84800680A38A749086008460068B0F540
:104330002F7F02D84FF42F700860A248A2A1026814
:10434000684601F0E7F969469848FFF7D7FB00E0B7
:1043500000BF00BF00BF15E510B530219D4801F03A
:1043600046FB30224FF4FA019A48FEF752FC994876
:10437000806A9949884204D100BF9648007809288C
:1043800003DD3021934801F032FB10BD10B500244D
:1043900091489049886208200870084690F82C409F
:1043A0004FF4FA60FEF7AFFC30224FF4FA0189486F
:1043B000FEF7C9FCFFF7D0FF864890F82C00A0421A
:1043C00006D08648007840F004008449087005E073
:1043D0008248007820F004008049087010BD70B554
:1043E00000240025601E7E490860FFF7B5FF00BF6E
:1043F0000CE07848401C005D012805D179484455FF
:10440000681CC5B276480460601CC4B2714890F85C
:104410002C00A042EDDC7448056070BD10B5044668
:104420003421724801F0E3FA47F6105000EB041013
:10443000010234226D48FEF7ECFB6C48C06A6B4900
:10444000096B884209D269480078A04205D16748C3
:1044500001786048401C405C20B93421634801F079
:10446000C6FA07E0614890F82A00614908725F487F
:10447000C06A086010BD70B5044600255B4890F81E
:104480003050002000EB041010F00F0F06D147F65B
:10449000105101EB04110809FEF735FC47F61050E6
:1044A00000EB0410010234225048FEF74CFC204679
:1044B000FFF7B4FF4D48006BA84206D0474800788C
:1044C00040F008004549087005E04448007820F0B5
:1044D00008004249087070BD30B58BB0282101A892
:1044E00001F085FA0025002442480068002853D0D6
:1044F0004048007810F0010F09D041213E48FFF7F5
:10450000EEFA3C48006820F001003A49086039485A
:10451000007810F0080F09D038A13748FFF7EEFAFD
:104520003448006820F008003249086031480078BB
:1045300010F0020F11D0274890F82C00421E31A134
:1045400001A801F0E7F801A92B48FFF7D7FA29489D
:10455000006820F00200274908602648007810F023
:10456000100F09D02BA12448FFF7C8FA2148006892
:1045700020F010001F4908601E48007810F0200F3E
:104580007ED0144890F82C0000287ADD29A11A4822
:10459000FFF7B4FA002471E0DDE100001001002013
:1045A000233450256454310D0A00000000480040B7
:1045B000DE00002014010020233550256454310D05
:1045C0000A00000018010020233650256454310DE4
:1045D0000A000000F0130020785634123C0100203D
:1045E00044010020F9120020400100202014002086
:1045F0005414002034010020003801402343430DAF
:104600000A00000023446F776E2B4F4B2B25640D5F
:104610000A00000023566572692B554152542B4FF6
:104620004B2B32303136303930362B3137360D0A9C
:104630000000000023000000FE48005D01281CD19E
:104640002046FFF7EBFEFC48006BFB49C96A401AA5
:1046500005D10021F7480155FFF798FE0DE0F64817
:10466000006BF549C96A431A2246F4A101A801F07A
:1046700051F801A9F748FFF741FA641CED4801E041
:104680001BE009E0401E90F82C00A042D4D8F2A113
:10469000F048FFF733FA0AE0E648401EEFA1426A0D
:1046A00001A801F037F801A9EA48FFF727FAEC481A
:1046B000006820F02000EA490860E948007810F01E
:1046C000800F0DD0DC490878FFF7D5FEE5A1E14861
:1046D000FFF714FAE248006820F08000E049086023
:1046E000DF48008810F4807F21D000240DE0D148FD
:1046F000005D012808D12046FFF790FE0020CE493A
:1047000048852046FFF7B7FE641CCA48401E90F853
:104710002C00A042EBD8FFF739FED6A1CD48FFF719
:10472000EDF9CF48006820F48070CD490860CC488E
:10473000008810F4007F1BD0D3A1C648FFF7DEF934
:10474000D348037AD3A1426801A800F0E3FF01A98E
:10475000C048FFF7D3F9D2A1BE48FFF7CFF9C04850
:10476000006820F40070BE4908600120CE4908703E
:10477000BB48008810F4806F46D0C548407AAD49E8
:10478000491E91F82C10884238DA0021C048427A3C
:10479000A8488154FFF7FAFDFFF721FEBC48417A93
:1047A000A448401E90F82C00401E814220D1BF48F2
:1047B0000078401C9F49491E81F82C00BB480068C6
:1047C000401C01D1486211E0B8480068FFF726FE9E
:1047D0009948006B9749491E48620846406A001193
:1047E000102101EB00109349491E4862FFF7CEFDEE
:1047F000FFF7F5FDAEA19748FFF780F998480068EC
:1048000020F48060964908609548008810F4006F95
:1048100025D0AAA18F48FFF771F90120AB49087094
:10482000FEF7E9FA00209A4908728249491E486257
:1048300081F82C0020217F4801F0B7F8FFF7A6FD92
:10484000A3A18448FFF75AF90020A04908708448C2
:10485000006820F4006082490860FFF7C0FD8048CE
:10486000008810F4805F09D09DA17A48FFF746F9CF
:104870007B48006820F480507949086078480088B7
:1048800010F4005F67D08248807A14287DDA984857
:104890000078002860D0974800F0C2FFC5B27C487D
:1048A000807AA84252D19348001D00F0B9FF044617
:1048B00023462A4690A18F48401E00F02BFF8D49C9
:1048C000491E6448FFF71AF97148807A401C704904
:1048D000887223208DF804000846807A642190FBBA
:1048E000F1F00A2190FBF1F201FB12003030C0B26E
:1048F0008DF805006648807A90FBF1F090FBF1F2AC
:1049000001FB12003030C0B28DF806006048807A9A
:1049100090FBF1F201FB12003030C0B28DF80700BD
:1049200050208DF8080052208DF8090041208DF8A4
:104930000A0044208DF80B000D208DF80C000A2091
:104940008DF80D0001A96E48FFF7D8F800206849DE
:1049500008706C49086062E06A480068401C694958
:10496000086008460068B0F5967F58DB4848807AB2
:10497000401C4749887223208DF804000846807A3D
:10498000642190FBF1F00A2100E03BE090FBF1F2A2
:1049900001FB12003030C0B28DF805003C48807A2F
:1049A00090FBF1F090FBF1F201FB12003030C0B24D
:1049B0008DF806003648807A90FBF1F201FB120078
:1049C0003030C0B28DF8070050208DF8080052201A
:1049D0008DF8090041208DF80A0044208DF80B0065
:1049E0000D208DF80C000A208DF80D0001A9444817
:1049F000FFF784F800203E49087043490870414998
:104A000008600CE01648006820F400501449086063
:104A100000201F49887210A10E48FFF76FF8104858
:104A2000008810F4804F71D01948C07A14286EDACB
:104A300034486DE0F1130020201400204E616D65B4
:104A40003A25642E7478742D2D53697A653A25645D
:104A50002D2D0000003801400D0A0000230D0A0032
:104A60003401002023456E61626C652B4F4B2E2E66
:104A70002E0D0A002344697361626C652B4F4B2E27
:104A80002E2E0D0A00000000234F4B0D0A000000DF
:104A900054140020232564474325640D0A000000B8
:104AA000234C503D300D0A002E010020440100200F
:104AB000234644656C2B4F4B0D0A000023466F7252
:104AC0006D61742B53746172740D0A004E010020E5
:104AD00023466F726D61742B4F4B0D0A000000006E
:104AE000235053322B4F4B2E2E2E0D0A0000000068
:104AF000310100209213002023256450256400001A
:104B00000048004050010020320100201AE01AE065
:104B10000068401CFD49086008460068142818DB3E
:104B2000FB48C27AFBA1FE4800F0F4FDFC49FD48B9
:104B3000FEF7E4FFF648C07A401CF549C872002031
:104B4000F249086005E0F848006820F48040F64922
:104B50000860F548008810F4004F33D0EC48C07A64
:104B600014281CDAE9480068401CE8490860084637
:104B70000068052826DBE648037BC27AEBA1E848FB
:104B800000F0C8FDE649E748FEF7B8FFE048C07A04
:104B9000401CDF49C8720020DC49086012E0DC4894
:104BA000027BE5A101A800F0B5FD01A9E748FEF7E9
:104BB000A5FFDD48006820F40040DB4908600020C4
:104BC000E3490870D848006810F4803F11D0FFF71F
:104BD000C3FB0120DF4981F82E00FFF7D7FBDEA1E0
:104BE000DA48FEF78BFFD048006820F48030CE49C9
:104BF0000860CD48006810F4003F11D0FFF7ACFB0F
:104C00000020D44981F82E00FFF7C0FBD7A1CF4880
:104C1000FEF774FFC448006820F40030C249086001
:104C20000BB030BD10B5D6480078002842D0002027
:104C3000D4490870D2490870D3490870C54890F823
:104C40002C00202825DAFFF7CAFBD048006BC149A9
:104C500048620121BF4890F82C20401C8154CC4868
:104C60000078401CC949087008460078401CB949C2
:104C700081F82C00C748007820F02000C549087052
:104C8000FFF784FBC1490878FFF7F5FBFFF7A7FBA7
:104C900005E0C048007840F02000BE490870BD48DB
:104CA000007810F0210F05D19F48006840F0020005
:104CB0009D490860B848007800286FD0B248007855
:104CC000002838D092480068B049096B884225D244
:104CD0009548007810F0400F09D0B0A19B48FEF72E
:104CE0000DFF9148006820F020008F4908604FF4C4
:104CF0008071AD4800F07BFE8548006801024FF4EA
:104D00008072A948FDF785FFA7499048FEF7F6FE97
:104D10007F480068401C7E49086009E07C480068C4
:104D200018B1A2A18948FEF7E9FE00209649087053
:104D300000207D4908609F480078002824D07A48E8
:104D4000007810F0080F05D1714800688F49C96AD2
:104D500088427BD16E48007A002820DD6C480068CC
:104D60008A49096B884210D26948006801024FF4F1
:104D700080728D48FDF74DFF01208F49087064480F
:104D80000068401C6249086060E08048C06A604971
:104D900008600846007A401E087257E012E087A1BA
:104DA0006A48FEF7ABFE002082490870854800780B
:104DB00000284BD084A16548FEF7A0FE0020814961
:104DC000087043E082480068002800DA10BD5048AF
:104DD000007A00282ADD5448007810F0080F05D129
:104DE0004B4800686949C96A88422FD14848006821
:104DF0006649096B884210D24548006801024FF4A9
:104E000080726948FDF705FF01206B490870404832
:104E10000068401C3E49086018E05C48C06A3C4994
:104E200008600846007A401E08720FE03849496859
:104E3000684A505CFFF7F2FA65480068401E644912
:104E4000086033484068401C3149486000BFBDE7F6
:104E500070B561480078002856DD5F480078401E34
:104E60005D49087008460078052802DA01205B4990
:104E700008705B480078401C594908705948007810
:104E8000401C5849087008460078072801D10020C6
:104E9000087053480078072802D100205049087054
:104EA0005049097801EBC1014F4A32F811108800CE
:104EB000C11700EB5171C9104C4A11800124F2E076
:104EC0004848007800EBC000474901EB400030F84B
:104ED00014004349097801EBC101434A02EB410147
:104EE00031F81410884210DD3E49097801EBC10108
:104EF00002EB410131F81410394A127802EBC20278
:104F0000394B03EB420273E0D6E087E0500100200A
:104F10005414002023256450554C4B0D0A0000000A
:104F200091130020004800403401002023256450E4
:104F30004D4F4425640D0A0023323535504D4F4402
:104F400025642B304B2E2E2E0D0A00000038014018
:104F500031010020F013002023464D51454E4142BF
:104F60004C452B4F4B2E2E2E0D0A000023464D5143
:104F700044495341424C452B4F4B2E2E2E0D0A00D7
:104F80002F0100202A0100202D01002020140020E4
:104F9000440100203C0100202001002023537461C3
:104FA00072740D0A00000000F811002023456E64A1
:104FB0000D0A0000300100204C0000203434340D74
:104FC0000A0000002E010020234147460D0A000080
:104FD00040010020F91200201C01002023010020C4
:104FE0001D0100201E01002060000020260100207D
:104FF00032F81420881A01F0F6F8D54A03C2D548D1
:10500000008801F007F905462A460B46D04903C936
:1050100000F064FFD04A02EBC40203C2CF4800781C
:1050200000EBC000CE4901EB400030F81400CD4940
:10503000097801EBC101CA4A02EB410131F81410B1
:1050400088422EDCC749097801EBC10102EB41011E
:1050500031F81410C14A127802EBC202C04B03EBC4
:10506000420232F81420881A01F0BDF8B84A03C28F
:10507000B848008801F0CEF805462A460B46B449E8
:1050800003C900F02BFFB44A02EBC40203C2B248CA
:1050900000EBC40103C981F00041AF4A02EBC40236
:1050A00003C2601CC4B2092CFFF60AAF0020AE494F
:1050B0000880AE49087002E00020AD49087070BD5C
:1050C0002DE9FF5F4FF0000AD346A8480078012879
:1050D00006D1A7480078012801D1FFF7B9FE81E089
:1050E000A1480088401CA0490880084600889949CA
:1050F0000988884208D101209E4908709E480068AE
:1051000040F008009C4908604FF0010A4FE09349C5
:10511000097801EBC101924A02EB410131F81A1002
:10512000964A32F81A20501A01D4014600E0414252
:10513000052910DA0BF1010000F0FF0B8748007819
:1051400000EBC000864901EB400030F81A008B49A3
:1051500021F81A0027E08448008801F05BF8044633
:105160007D4800EBCA00D0E900633246204601F0DA
:1051700065F8804689467B49097801EBC101784A88
:1051800002EB410131F81A0001F044F842464B4667
:10519000CDE9000100F0FAFDCDE9020100F0F6FFD3
:1051A000764921F81A000AF1010000F0FF0ABAF16D
:1051B000090FACDBBBF1080F02D101207049087068
:1051C0004FF0000B6B48007801280BD16C48007839
:1051D000012807D10020674908706949087001203B
:1051E00062490870BDE8FF9F10B5FFF7B5F8FFF7FB
:1051F000F6F864480021016041608160C16010BD23
:10520000FEF7A4FAFDF7ACF80120FEF7BFFB022081
:10521000FEF7BCFB0320FEF7B9FBFDF7AAFAFDF78A
:10522000B2FAFDF7C3FBFEF703FAFDF7C7FAFEF784
:105230002FFA4FF4E1315448FEF7BFFB4FF4E13150
:105240005248FEF7BAFB4FF4E130FEF7D5FBFDF70D
:1052500080FC03E04EA14C48FEF750FCFDF758FCE3
:10526000A0F56F411639F5D1FDF7B9FBFEF7F9F955
:10527000FFF7BAFF17E04B480078012804D1FFF789
:105280001FFF00204749087047480078012804D1D3
:10529000FEF73EFD002044490870FFF7C3FCFFF70E
:1052A0001BF9FEF74DFDE6E710B5404800780128F0
:1052B0001FD100203D490870FEF72CFA3C490880B8
:1052C0000846008840F6340188420DDB38480088E3
:1052D00040F6B111884207DC364800686FEA0000EA
:1052E0003549C1F8B40104E04FF400513348FBF7ED
:1052F00030FB10BD03E026A12348FEF7FFFBFDF7BE
:1053000007FCA0F56F411639F5D12DA11E48FEF717
:10531000F5FB2F480068A0F164010F222D48FDF72E
:1053200012FD2DA11848FEF7E9FB29480068A0F1FD
:1053300064010F222E48FDF76CFC2D491248FEF740
:10534000DDFB2CA11048FEF7D9FB00BFFEE70000F3
:105350007001002026010020B01100201E01002055
:10536000600000201D0100202801002021010020F4
:10537000240100205501002034010020DE0000201F
:105380005401002054140020003801400044004023
:105390004E6F7420466F756E642057323551363427
:1053A0000D0A0000220100204C0000203B010020DB
:1053B0004A010020B481214200802142000C0140BA
:1053C00020466F756E64205732355136340D0A0011
:1053D000580100200C660008466C61736820577203
:1053E00069746520537563636573730D0A0000006B
:1053F000C31300200D0A20466C617368205265615A
:105400006420537563636573730D0A00704700BFB2
:10541000FEE700BFFEE700BFFEE700BFFEE7704704
:105420007047704710B5FEF7F9F910BD10B50121AE
:105430008807FCF77CFD48B101218807FCF788FD4F
:10544000FDF7A3F801218807FCF76EFD10BD10B52C
:1054500001213248FCF76BFD38B101212F48FCF7E0
:1054600077FD01218807FCF75FFD10BD10B5012114
:105470002B48FCF75CFD00283FD001212848FCF7B1
:1054800067FD28480078401C2649087008460078C7
:105490000A2807D1012024490870244908700020F7
:1054A0002049087022480078012811D1214800784D
:1054B000401C2049087008460078142808D10020B4
:1054C00008701D4800686FEA00001C49C1F8B80167
:1054D0001748007888B91A480078401C18490870A5
:1054E00008460078642808D1002008701248006837
:1054F0006FEA00001149C1F8B80110BD10B50121D3
:105500001048FCF714FD38B101210E48FCF720FDCE
:1055100001218807FCF708FD10BD000000040040D1
:1055200000080040780100203A0100203B010020E3
:105530004E0100207A010020B881214200802142E2
:1055400079010020000C004000210020674A126809
:1055500042F48032654B1A6000BF644A126802F45C
:105560000030491C10B9B1F5A06FF6D15F4A12683E
:1055700012F4003F01D0012000E00020012842D1B8
:105580005B4A126842F01002594B1A601A461268C0
:1055900022F003021A601A46126842F002021A60F0
:1055A000524A5268514B5A601A4652685A601A461B
:1055B000526842F480625A601A46526822F47C12A1
:1055C0005A601A46526842F4E8125A601A46126843
:1055D00042F080721A6000BF444A126812F0007FE5
:1055E000FAD0424A526822F00302404B5A601A46EF
:1055F000526842F002025A6000BF3C4A526802F010
:105600000C02082AF9D1704710B5FFF79DFF10BDB5
:1056100010B53648006840F001003449086008467B
:1056200040683449084031494860084600683249BA
:1056300008402E4908600846006820F48020086071
:105640000846406820F4FE0048604FF41F00886060
:10565000FFF7DAFF4FF000602849086010BD10B571
:10566000002100200022214B5B6803F00C0121B1D6
:10567000042906D0082928D107E0214B214C2360BA
:1056800027E01F4B1F4C236023E0184B5B6803F49B
:105690007010164B5B6803F48032022303EB9040DA
:1056A00022B9194B4343174C23600DE00F4B5B6845
:1056B00013F4003F04D0144B4343124C236003E027
:1056C0000F4B43430F4C236003E00D4B0D4C236005
:1056D00000BF00BF054B5B68C3F303130B4CE15CD9
:1056E000084B1B68CB40074C236010BD00100240E4
:1056F000002002400000FFF8FFFFF6FE08ED00E08A
:1057000000127A007C01002000093D008001002089
:10571000704700000FB41CB5074B06AA7B446946CE
:105720000090059800F0F3F90020694600F002FAB5
:105730001CBC5DF814FB0000150400002DE9F041CD
:1057400004460E46002020622046E168884738B3B0
:10575000252806D0D4E901219047206A401C206208
:10576000F2E7E168204600278847050018D0A5F138
:105770004100192802D820354FF4006732462946E7
:1057800020462760FAF70CFD40B1012804D0F61D31
:1057900026F007060836D7E7361DD5E72846D9E7AD
:1057A000206ABDE8F08100002DE9F04106460024A2
:1057B00010687529314616A511D0AFF30080002876
:1057C00003DAC0F1000013A507E031688A0701D5AC
:1057D00011A502E0490704D510A5012401E0AFF3AB
:1057E000008000210A2306F1240707E0B0FBF3F252
:1057F00003FB1200303078541046491C0028F5D1C4
:1058000023462A463046BDE8F04100F01FB90000AB
:10581000000000002D0000002B0000002000000010
:1058200070B5064600F00EF90468054630460A22B7
:10583000002100F084F92C6070BD401ECAB210F83F
:10584000011F8A4202D00029F9D10020704730B5EB
:1058500005460B462A4613F8014B12F8010B08B116
:10586000A042F8D01CB1002802D06D1CF1E72846F8
:1058700030BD10B5431C02E010F8011B71B1810767
:10588000FAD14FF0013202C88C1A8C4314EAC211CB
:10589000F9D0C01A0A0603D0C01E10BDC01A10BD30
:1058A0000A0401D0801E10BD0902FCD0401E10BDAC
:1058B00040EA010370B59B072ED14FF00136042A50
:1058C0002AD308C810C9121F9D1B9D4315EAC6158F
:1058D00017D0D8B2E1B2401A50EA056110D198B29F
:1058E000A1B2401A50EA05410AD123F07F4024F0CA
:1058F0007F41401A50EA052102D1180EA0EB146036
:1059000070BDA342DBD018BA21BA884201D9012068
:1059100070BD4FF0FF3070BD0AB9002070BD10F8A7
:10592000013B11F8014B63B1A3420AD1521E08D0CA
:1059300010F8013B11F8014B1BB1A34201D1521EDB
:10594000EDD1181B70BD10B5203AC0F00B80B1E846
:105950001850203AA0E81850B1E81850A0E81850A4
:10596000BFF4F5AF5FEA027C24BFB1E81850A0E8AD
:10597000185044BF18C918C0BDE810405FEA827CC7
:1059800024BF51F8043B40F8043B08BF7047D207DE
:1059900028BF31F8023B48BF11F8012B28BF20F87F
:1059A000023B48BF00F8012B70474FF0000204296A
:1059B000C0F0128010F0030C00F01B80CCF1040C3E
:1059C000BCF1020F18BF00F8012BA8BF20F8022B72
:1059D000A1EB0C0100F00DB85FEAC17C24BF00F818
:1059E000012B00F8012B48BF00F8012B70474FF046
:1059F000000200B5134694469646203922BFA0E81F
:105A00000C50A0E80C50B1F12001BFF4F7AF09072A
:105A100028BFA0E80C5048BF0CC05DF804EB89001B
:105A200028BF40F8042B08BF704748BF20F8022B5E
:105A300011F0804F18BF00F8012B70477047704776
:105A40007047704700487047641400202DE9F04704
:105A50000D4699469246044600F1240801688806DE
:105A600004D5E06921F01001216000E00120A84286
:105A700002DDA0EB050700E00027A16907EB0502A6
:105A800002EB0900A1EB0000A0612078C00602D45F
:105A90002046AFF30080002608E0D4E901211AF87F
:105AA00006009047206A401C761C20624E45F4DBBD
:105AB0002078C0060AD52046AFF3008006E0D4E97E
:105AC000012130209047206A401C2062381EA7F137
:105AD0000107F4DC07E0D4E9012118F8050090473C
