:020000040800F2
:100000006809002099010008790D0008930800088C
:10001000590D0008B1060008172300080000000071
:10002000000000000000000000000000391400087B
:10003000B506000800000000E1120008351A0008AB
:10004000B3010008B3010008B3010008B3010008C0
:10005000B3010008B3010008B3010008B3010008B0
:10006000B3010008B3010008B3010008B3010008A0
:10007000B3010008B3010008B3010008B301000890
:10008000B3010008B3010008B3010008B301000880
:10009000B3010008B3010008B3010008B301000870
:1000A000B3010008B3010008B3010008B301000860
:1000B0009D1A0008B3010008B3010008B30100084D
:1000C000B3010008B3010008B3010008B301000840
:1000D000B30100082D1F0008B11F0008B30100087C
:1000E000B3010008B3010008B301000800F002F8F2
:1000F00000F043F80AA090E8000C82448344AAF17F
:100100000107DA4501D100F038F8AFF2090EBAE87C
:100110000F0013F0010F18BFFB1A43F0010318473B
:100120005822000078220000103A24BF78C878C115
:10013000FAD8520724BF30C830C144BF04680C60ED
:10014000704700000023002400250026103A28BF35
:1001500078C1FBD8520728BF30C148BF0B60704739
:100160001FB500F05DF904000020002102F0EEF858
:10017000401C60601FBD10B510BD00F02CF9114689
:10018000FFF7EEFF02F0CCF800F05CF903B4FFF7E4
:10019000F2FF03BC02F0C1F8094880470948004754
:1001A000FEE7FEE7FEE7FEE7FEE7FEE7FEE7FEE727
:1001B000FEE7FEE704480549054A064B7047000084
:1001C0003D1A0008ED0000086803002068090020BF
:1001D0006805002068050020704770B5064600F0ED
:1001E00063F80468054630460A22002100F060F8F2
:1001F0002C6070BD401ECAB210F8011F8A4202D0A6
:100200000029F9D10020704740EA010370B59B072F
:100210002ED14FF00136042A2AD308C810C99D1BDD
:100220009D43121F15EAC61517D0D8B2E1B2401A85
:1002300050EA056110D198B2A1B2401A50EA0541C6
:100240000AD123F07F4024F07F41401A50EA052173
:1002500002D1180EA0EB146070BDA342DBD018BA17
:1002600021BA884201D9012070BD4FF0FF3070BD26
:100270000AB9002070BD10F8013B11F8014B63B1C1
:10028000A3420AD1521E08D010F8013B11F8014BCD
:100290001BB1A34201D1521EEDD1181B70BD704796
:1002A00070477047704700000048704708030020FF
:1002B0002DE9F04791460F4680460446002614F883
:1002C000015B2DB100F030F80068405DC007F6D149
:1002D0002B2D02D02D2D18D0641E4A4639462046BB
:1002E00000F02AF827B13968A14201D1C7F800808F
:1002F0004FF0020471050BD54042002803DDFFF7E3
:10030000D3FF0460A007BDE8F08746F48066E4E709
:100310000028F8DAFFF7C8FF04606FF00040F2E74A
:10032000004870470803002010B500F079F8001D60
:1003300010BD00BF192000002DE9F05F8246154670
:100340008B4600270AF10104B9460078302801D015
:100350009DB113E014F8010B0127782803D0582829
:1003600001D045B10AE00DB1102D07D1002714F8D6
:10037000010B102502E0082500E00A250026B04602
:100380000EE005FB080005FB06F101271FFA80F8C7
:1003900001EB1046B6F5803F00D3B94614F8010BC7
:1003A000294600F041F80028EBDABBF1000F05D038
:1003B0000FB1641E00E05446CBF80040B9F1000FC5
:1003C00006D0FFF771FF02210160C81EBDE8F09F53
:1003D00048EA0640FAE77546FFF7A2FFAE46050079
:1003E0006946534620F00700854618B020B5FFF750
:1003F000E1FEBDE820404FF000064FF000074FF04F
:1004000000084FF0000B21F00701AC46ACE8C00932
:10041000ACE8C009ACE8C009ACE8C0098D4670473B
:1004200000487047280300203A2800D2303820F0D6
:100430002002412A01D3A2F13700884201D34FF0B4
:10044000FF30704710B50446AFF300802046BDE88A
:100450001040FFF79BBE00004FF0013C50F8042B0A
:1004600051F8043B9A4221D1A2EB0C03934313EAC7
:10047000CC1317D150F8042B51F8043B9A4215D1F4
:10048000A2EB0C03934313EACC130BD150F8042BCB
:1004900051F8043B9A4209D1A2EB0C03934313EAAF
:1004A000CC13DBD04FF00000704700BFD01A01BA68
:1004B000B1FA81F101F0180122FA01F0CB40C1F14B
:1004C0002001DBB2C0B2C01A2CFA01F3D11A914359
:1004D00011EAC311E6D1704710B5634800780028CF
:1004E00076D0624C002060490870204600F00EFA79
:1004F00040B15F48006801F0B7F95D48006801F05D
:10050000C5F9AEE0204600F0D7F950B15848006870
:10051000404201F0A9F956480068404201F0B6F99E
:100520009FE0204600F01CFA48B15148006801F0F5
:100530009BF94F480068404201F0A8F991E020463D
:1005400000F038FA48B14A480068404201F08CF99E
:100550004748006801F09AF983E0204600F054FA19
:1005600030B1002001F080F9002001F07DF978E041
:10057000204600F0B7FA18B1204600F05FFF70E0A7
:10058000204600F0BFFA18B1204600F06BFF68E08B
:10059000204600F0C7FA18B1204600F077FF60E06F
:1005A000204600F0CFFA18B1204600F083FF58E053
:1005B000204600F0D7FA18B1204600F08FFF50E037
:1005C000204600F0DFFA20B1204600F09BFF48E013
:1005D00048E0204600F060F968B1254800686430C2
:1005E0002349086008460068B0F57A7F39D34FF494
:1005F0007A70086035E0204600F0F6F968B11C48D2
:10060000006864381A49086008460068B0F52F7F12
:1006100027D84FF42F70086023E0204600F090F9AF
:1006200030B11448006880F480401249086018E036
:10063000204600F05BF930B14FF400510D480C3802
:1006400000F023F90DE0204600F0A4F930B14FF49A
:10065000005108480C3800F01AF902E0204601F079
:100660008BF800BF10BD0000900000203D0200206C
:10067000300000200C0C014008B50121082000F0DA
:1006800051FE4FF40050ADF8000010208DF803002B
:1006900003208DF802006946044800F06BF84FF41F
:1006A0000051024800F0F3F808BD0000000C0140C2
:1006B00000BFFEE7704700000B4908604FF0E021E3
:1006C000096941F001014FF0E022116100BF0649C4
:1006D00009680029FBD14FF0E021096921F00101EF
:1006E0004FF0E022116170472C0000200EB501216F
:1006F000084600F0F7FD4FF0804001F0FFF9472079
:10070000ADF800000020ADF802000920ADF80400AB
:100710000020ADF806008DF8080069464FF08040D3
:1007200001F0A6FB0121880701F0D5F9012211464D
:10073000900701F0E8FA0121880701F0D2F90EBD17
:1007400010B500F003F8FFF7D1FF10BD08B54FF466
:10075000A06000F04BFB1C208DF8000000208DF8FD
:10076000010001208DF802008DF80300684600F0BA
:1007700005FB08BD2DE9F0410246002500260020BA
:1007800000230024002791F803C00CF00F0591F816
:1007900003C00CF0100CBCF1000F03D091F802C0A4
:1007A0004CEA050591F800C0BCF1000F31D0146887
:1007B00000202BE04FF0010C0CFA00F3B1F800C060
:1007C0000CEA03069E4220D183004FF00F0C0CFA76
:1007D00003F7BC4305FA03FC4CEA040491F803C098
:1007E000BCF1280F06D14FF0010C0CFA00FCC2F846
:1007F00014C00AE091F803C0BCF1480F05D14FF0D6
:10080000010C0CFA00FCC2F810C0401C0828D1D31F
:100810001460B1F800C0BCF1FF0F34DD5468002053
:100820002EE000F1080C4FF0010808FA0CF3B1F8C3
:1008300000C00CEA03069E4221D183004FF00F0C4A
:100840000CFA03F7BC4305FA03FC4CEA040491F8E4
:1008500003C0BCF1280F05D100F1080C08FA0CF810
:10086000C2F8148091F803C0BCF1480F07D100F121
:10087000080C4FF0010808FA0CF8C2F81080401C70
:100880000828CED35460BDE8F08141617047016112
:10089000704700BFFEE7000010B50446042204A123
:1008A0002046FFF7B1FC08B9012010BD0020FCE78D
:1008B000425541440000000010B50446062207A13D
:1008C0002046FFF7A1FC28B1042206A12046FFF72D
:1008D0009BFC08B9012010BD0020FCE73C42444EBF
:1008E000443E000042444E440000000010B504465F
:1008F000042204A12046FFF787FC08B9012010BD9F
:100900000020FCE7425553440000000010B50446A7
:10091000062207A12046FFF777FC28B1042206A192
:100920002046FFF771FC08B9012010BD0020FCE74C
:100930003C425550443E00004255504400000000E7
:1009400010B50446042204A12046FFF75DFC08B957
:10095000012010BD0020FCE742554B440000000080
:1009600010B50446062207A12046FFF74DFC28B12A
:10097000042206A12046FFF747FC08B9012010BD5C
:100980000020FCE73C424C54443E0000424C54449E
:100990000000000010B50446042204A12046FFF721
:1009A00033FC08B9012010BD0020FCE74255534E2E
:1009B0000000000010B50446062207A12046FFF7FC
:1009C00023FC28B1042206A12046FFF71DFC08B92C
:1009D000012010BD0020FCE73C425254443E000080
:1009E000425254440000000010B50446042204A101
:1009F0002046FFF709FC08B9012010BD0020FCE7E4
:100A000042554D440000000010B50446062221A1C5
:100A10002046FFF7F9FB002837D004221FA120460B
:100A2000FFF7F2FB002830D006221EA12046FFF778
:100A3000EBFB002829D004221CA12046FFF7E4FB91
:100A400018B306221BA12046FFF7DEFBE8B1042203
:100A50001AA12046FFF7D8FBB8B1062219A12046FB
:100A6000FFF7D2FB88B1042218A12046FFF7CCFB88
:100A700058B1062217A12046FFF7C6FB28B1042271
:100A800016A12046FFF7C0FB08B9012010BD0020C9
:100A9000FCE700003C425550553E00004252544491
:100AA000000000003C42444E553E000042444E557A
:100AB000000000003C424C54553E0000424C54554E
:100AC000000000003C425254553E00004252545532
:100AD000000000003C425354443E00004253544442
:100AE0000000000010B50446052204A12046FFF7CF
:100AF0008BFB08B9012010BD0020FCE73C5355508A
:100B00002D00000010B50446052204A12046FFF781
:100B10007BFB08B9012010BD0020FCE73C534C547E
:100B20002D00000010B50446052204A12046FFF761
:100B30006BFB08B9012010BD0020FCE73C53444E7C
:100B40002D00000010B50446052204A12046FFF741
:100B50005BFB08B9012010BD0020FCE73C53525458
:100B60002D00000010B50446052204A12046FFF721
:100B70004BFB08B9012010BD0020FCE73C53444C5E
:100B80002D00000010B50446052204A12046FFF701
:100B90003BFB08B9012010BD0020FCE73C53445248
:100BA0002D00000008B50121082000F0BBFB4FF428
:100BB0008040ADF8000010208DF8030003208DF870
:100BC000020069460648FFF7D5FD4FF4804104480E
:100BD000FFF75DFE4FF4804001491031086008BD09
:100BE000000C014008B50121092000F09BFB40F2F8
:100BF0000330ADF8000018208DF8030003208DF8B5
:100C0000020069460148FFF7B5FD08BD000C014030
:100C100030B587B004460D460121022000F062FB8A
:100C2000ADF81050ADF814400020ADF81200ADF84A
:100C300016008DF8180004A91D4801F019F90121CA
:100C40001B4800F03CFF6020ADF800000120ADF82B
:100C500002000020ADF80400ADF80600ADF8080071
:100C6000ADF80A00ADF80C00ADF80E00694610486A
:100C700001F052F808210E4801F09EF869460C4830
:100C800001F0A4F808210A4801F0DEF80121084823
:100C900000F027FF2146064801F0E3F80021044850
:100CA00001F0E1F80021024801F0DFF807B030BDA3
:100CB0000004004030B587B004460D4601210420F1
:100CC00000F010FBADF81050ADF814400020ADF866
:100CD0001200ADF816008DF8180004A91D4801F0A7
:100CE000C7F801211B4800F0EAFE6020ADF80000C3
:100CF0000120ADF802000020ADF80400ADF80600B8
:100D0000ADF80800ADF80A00ADF80C00ADF80E0023
:100D10006946104801F000F808210E4801F04CF82F
:100D200069460C4801F052F808210A4801F08CF895
:100D30000121084800F0D5FE2146064801F091F84F
:100D40000021044801F08FF80021024801F08DF8DD
:100D500007B030BD0008004000BFFEE710B5FFF748
:100D600041FF05214FF47A70FFF752FF05214FF440
:100D70007A70FFF79FFF10BD7047000070B500212B
:100D800000230F22C47804B3154C246804F4E064F3
:100D9000C4F5E064210AC1F10403CA40447804FAAE
:100DA00003F184781440214309010E4C0678A155C3
:100DB000047804F01F050124AC4005786D11AD00E6
:100DC00005F1E025C5F8004109E0047804F01F05AD
:100DD0000124AC40044D0678761145F8264070BDDC
:100DE0000CED00E000E400E080E100E00249014396
:100DF000024A1160704700000000FA050CED00E0A7
:100E0000002004E00021034A1154411CC8B2092803
:100E1000F8DB7047A400002038B50446012000909C
:100E200000201C494870012000902EE0BDF8000011
:100E3000204018B101201849086002E0002016493E
:100E400008600120144908390860322000F0CEFD06
:100E500000201249C1F82C01322000F0C7FD01200A
:100E60000E49C1F82C010846D0F8380130B10948C4
:100E70004078BDF80010084306494870BDF80000EE
:100E80004FF6FF7101EA40000090BDF80000FF2816
:100E9000CCDD38BDA40000203401214200002142F5
:100EA00010B55520FFF708FC00F04CF99F49086089
:100EB000082000F097F99E490860062000F092F99A
:100EC0009C49086000F068F99B4908700846007862
:100ED00000286ED19548006805280DD19748808874
:100EE00019389649888008468088B0F5487F02DC2A
:100EF0004FF448708880CBE08C48006807280ED1FA
:100F00008E48808819308D4988800846408840F690
:100F100098018842EFDB084688498880B8E083481A
:100F2000006808280ED185484088193083494880D8
:100F30000846408840F698018842DCDB08467F4935
:100F40004880A5E07948006806280DD17B48408894
:100F500019387A49488008464088B0F5487FCADC8D
:100F60004FF44870488093E0704800680D280ED117
:100F70007248C08819307149C8800846C08840F658
:100F800098018842B7DB08466C49C88080E0674812
:100F900000680F280ED16948C08819386749C88091
:100FA0000846C088B0F5487F72DC4FF44870C880AE
:100FB0006EE0B9E05D48006810280ED15F480089F6
:100FC00019305E4908810846008940F69801884238
:100FD0005EDB0846594908815AE0544800680E28EB
:100FE0000DD15648008919385449088108460089AE
:100FF000B0F5487F4CDC4FF44870088148E04B481E
:1010000000680B280ED14D48408919304B49488162
:101010000846408940F69801884239DB084647492E
:10102000488135E04148006809280DD1434840898E
:1010300019384249488108464089B0F5487F27DC85
:101040004FF44870488123E0384800680C280ED1DE
:101050003A4880891930394988810846808940F6A4
:101060009801884214DB08463449888110E02F48F3
:1010700000680A280CD13148808919382F498881A5
:1010800008468089B0F5487F02DC4FF448708881BB
:10109000274800686E2807DD25480068922803DC91
:1010A000002000F0F3FB19E021480068002808DB6D
:1010B0001F4800686E2804DC2148006800F0E6FB49
:1010C0000CE01B480068922808DD19480068FF28DA
:1010D00004DC1B480068404200F0D8FB154800685B
:1010E0006E2807DD13480068922803DC002000F01A
:1010F000BBFB19E00F480068002808DB0D480068BA
:101100006E2804DC0E48006800F0AEFB0CE00948D5
:101110000068922808DD07480068FF2804DC0848BA
:101120000068404200F0A0FB10BD000084000020D9
:1011300078000020800000208C0000203400002077
:101140003000002010B5FFF75BFE00F073F80F4889
:10115000C0780E49097940EA01200D490880002431
:101160000FE00C4810F81400401E012101FA00F0B5
:1011700007490988084010B9601CC0B210BD601C46
:10118000C4B2102CEDDB0020F8E70000A400002022
:10119000500000205400002010B500200D490860C8
:1011A0000D490878FFF738FE0B494878FFF734FE01
:1011B00001200A49C1F8300109484078732801D15B
:1011C000002010BD06484078412801D10120F8E7F1
:1011D0000220F6E7300121425200002000002142A7
:1011E000A400002001460148405C7047A400002094
:1011F00008B50121042000F095F84FF48040ADF8C7
:10120000000028208DF8030069460948FFF7B2FA6C
:101210004FF46050ADF8000010208DF8030003205B
:101220008DF8020069460248FFF7A4FA08BD0000E5
:10123000000801401CB50020019001200090002012
:101240002349086023490878FFF7E6FD21494878DB
:10125000FFF7E2FD0220019031E00120009022E042
:1012600001201B49091F086000201B49C1F82C01FF
:10127000322000F0BBFB01201749C1F82C010846C1
:10128000D0F8380140B115499DF80420881801783C
:10129000BDF8002011430170BDF800004FF6FF714A
:1012A00001EA40000090BDF80000FF28D8DD3220A0
:1012B00000F09CFB9DF80400401CC0B201909DF81A
:1012C00004000928C9DB0120014908601CBD000099
:1012D000300121425200002000002142A4000020E1
:1012E0007047000029B1064AD2690243044BDA6113
:1012F00004E0034AD2698243014BDA61704700007F
:101300000010024029B1064A12690243044B1A61D7
:1013100004E0034A12698243014B1A6170470000DE
:101320000010024029B1064A92690243044B9A61B7
:1013300004E0034A92698243014B9A6170470000BE
:101340000010024029B1064AD2680243044BDA6019
:1013500004E0034AD2688243014BDA607047000020
:101360000010024030B500210022002400232D4D42
:101370006D6805F00C0121B1042905D0082923D19D
:1013800005E0294D056022E0274D05601FE0254D51
:101390006D6805F47012234D6D6805F480340225E4
:1013A00005EB92421CB9214D554305600BE01D4DE4
:1013B0006D6805F400351DB11C4D5543056002E014
:1013C000194D5543056002E0174D056000BF00BF91
:1013D000144D6D6805F0F0010909154D6B5C056849
:1013E000DD4045600F4D6D6805F4E061090A104D60
:1013F0006B5C4568DD4085600A4D6D6805F46051A1
:10140000C90A0B4D6B5C4568DD40C560054D6D68D4
:1014100005F44041890B074D6B5CC568B5FBF3F5DE
:10142000056130BD0010024000127A0000093D0045
:1014300014000020240000207047000070B506460C
:1014400000242D213046FEF7D5FE044634B1641C3D
:101450002046FEF7C2FE054601494D8070BD0000E2
:101460003400002070B5064600242D213046FEF7DA
:10147000C1FE044634B1641C2046FEF7AEFE0546AC
:1014800001498D8070BD00003400002070B5064613
:1014900000242D213046FEF7ADFE044634B1641C15
:1014A0002046FEF79AFE05460149CD8070BD00003A
:1014B0003400002070B5064600242D213046FEF78A
:1014C00099FE044634B1641C2046FEF786FE0546AC
:1014D00001490D8170BD00003400002070B5064642
:1014E00000242D213046FEF785FE044634B1641CED
:1014F0002046FEF772FE054601494D8170BD000091
:101500003400002070B5064600242D213046FEF739
:1015100071FE044634B1641C2046FEF75EFE0546AB
:1015200001498D8170BD00003400002010B57D4858
:101530000078012809D17C4840884FF08041888597
:10154000C9137A48FFF7A3F9E6E076480078022845
:101550000BD17548408840F6C911081A890788855B
:10156000C9137248FFF791F9D6E06E480078032856
:1015700009D16D4880884FF08041888589156C4875
:10158000FFF785F9C8E06748007804280BD1664862
:10159000808840F6C911081A89078885891564482A
:1015A000FFF773F9B8E05F480078052809D15E4875
:1015B000C0884FF08041888520215C48FFF767F99B
:1015C000AAE05848007806280BD15748C08840F652
:1015D000C911081A8907888520215448FFF755F951
:1015E0009AE050480078072809D14F4800894FF009
:1015F0008041888510214D48FFF749F98CE0494822
:10160000007808280BD14848008940F6C911081A0B
:101610008907888510214548FFF737F97CE0414864
:101620000078092809D1404840894FF080418885D9
:1016300008213E48FFF72BF96EE03A4800780A2867
:101640000BD13948408940F6C911081A89078885A5
:1016500008213648FFF719F95EE0324800780B2878
:1016600009D1314880894FF080418885C9133048BD
:10167000FFF70DF950E02B4800780C280BD12A48D1
:10168000808940F6C911081A89078885C913284836
:10169000FFF7FBF840E0234800780D2805D12248E9
:1016A000C0894FF08041888536E01E4800780E28BA
:1016B00007D11D48C08940F6C911081A89078885D5
:1016C0002AE0184800780F2805D11748008A4FF003
:1016D0008041888520E01348007810281CD11248EA
:1016E000008A40F6C911081A8907888511480068E0
:1016F000401C1049086008460068192809D10020DC
:1017000008600A480C30006880F4804007490C31BA
:10171000086000200349087002480078401C014915
:10172000087010BD4600002034000020000C01406D
:10173000000801404800002008B501210D20FFF7F6
:10174000F1FD03208DF8020010208DF803004FF406
:101750000140ADF8000069460548FFF70BF848F274
:101760003800ADF8000069460248FFF703F808BDED
:1017700000080140000C01402DE9FC5F04460025F3
:10178000AB4600200190009000260027824680464C
:1017900081465FE0BBF1010F0ED1605D502808D09B
:1017A0006019FEF71AFD064607EB870006EB4007B7
:1017B0003EE04FF0000B3BE0019801281DD1605D39
:1017C00054280BD0605D232808D06019FEF705FD72
:1017D000064608EB880006EB400829E0002001904F
:1017E00040F6C410804500D980461D4921F8178075
:1017F0004FF00008BA4600271AE00098012817D1D8
:101800006019FEF7EAFC064609EB890006EB400981
:101810001349A1F80090681C205C0D2808D1B9F18B
:10182000640F05D8084630F81A000E4921F81A004E
:10183000605D232802D14FF0010B0AE0605D502863
:1018400002D10120019004E0605D542801D1012003
:1018500000906D1C605D0A289CD1BDE8FC9F0000D3
:101860009200002034000020002806DA4142064A97
:1018700011800021121D118005E0034A121D108005
:101880000021121F118070473C040040002806DA36
:101890004142064A11800021121F118005E0034ACF
:1018A000121F10800021121D118070474008004057
:1018B00010B500F001F810BD0CB5002001900090AB
:1018C0003348006840F480303149086000BF304838
:1018D000006800F4003000900198401C01900098CE
:1018E00018B90198B0F5A06FF1D12948006800F44B
:1018F000003010B10120009001E00020009000981D
:10190000012843D12348006840F0100021490860B5
:101910000846006820F0030008600846006840F0B0
:10192000020008601A484068194948600846406843
:1019300048600846406840F4806048600846406857
:1019400020F47C1048600846406840F4E810486085
:101950000846006840F08070086000BF0C480068CE
:1019600000F000700028F9D00948406820F003001A
:10197000074948600846406840F00200486000BFE0
:101980000348406800F00C000828F9D10CBD0000A5
:10199000001002400020024030B50146B1F1807FC6
:1019A00001D3012030BD21F07F40401E4FF0E022E6
:1019B000506150170F22002807DA13071D0E094B3C
:1019C00000F00F04241F1D5503E013071C0E064BE7
:1019D0001C5400BF00204FF0E022906107201061EE
:1019E0000020DFE718ED00E000E400E031B50F482B
:1019F00000680F49B0FBF1F52846FFF7CDFF002442
:101A000008E000BF4FF0E020006900F480300028BB
:101A1000F8D0641C00988442F3D34FF0E0200069B2
:101A200020F001004FF0E021086138BD00000020E7
:101A300040420F0010B500F06DFA10BD10B513480C
:101A4000006840F0010011490860084640681049EC
:101A500008400E494860084600680E4908400B4996
:101A600008600846006820F4802008600846406846
:101A700020F4FE0048604FF41F008860FFF718FF55
:101A80004FF000600449086010BD000000100240E3
:101A90000000FFF8FFFFF6FE08ED00E010B50121A1
:101AA000880700F01FF948B10121880700F016F8F7
:101AB000FFF73CFD0121880700F00DF810BD21B1B2
:101AC000028842F08002028004E002884FF67F73B1
:101AD0001A4002807047CA4302827047CA4302829A
:101AE000704721B1028842F00102028004E00288BE
:101AF0004FF6FE731A4002807047000010B504468E
:101B00006848844208D10121C014FFF71BFC002162
:101B1000E014FFF717FCC4E0B4F1804F08D10121B5
:101B20000846FFF7EFFB00210120FFF7EBFBB8E0D1
:101B30005D48844208D101210220FFF7E3FB002128
:101B40000220FFF7DFFBACE05848844208D10121B6
:101B50000420FFF7D7FB00210420FFF7D3FBA0E010
:101B60005348844208D101210820FFF7CBFB002114
:101B70000820FFF7C7FB94E04E48844208D10121BA
:101B80001020FFF7BFFB00211020FFF7BBFB88E010
:101B90004948844208D101212020FFF7B3FB0021EE
:101BA0002020FFF7AFFB7CE04448844208D10121AC
:101BB0004014FFF7C7FB00216014FFF7C3FB70E080
:101BC0003F48844209D10121C804FFF7BBFB002133
:101BD0004FF40020FFF7B6FB63E03A48844209D196
:101BE00001210805FFF7AEFB00214FF48010FFF73D
:101BF000A9FB56E03448844209D101214805FFF78A
:101C0000A1FB00214FF40010FFF79CFB49E02F4897
:101C1000844208D101214020FFF774FB00214020BD
:101C2000FFF770FB3DE02A48844208D10121802063
:101C3000FFF768FB00218020FFF764FB31E02548B7
:101C4000844208D101218015FFF75CFB0021A0151B
:101C5000FFF758FB25E02048844209D10121080400
:101C6000FFF770FB00214FF48030FFF76BFB18E0AB
:101C70001A48844209D101214804FFF763FB00217F
:101C80004FF40030FFF75EFB0BE01548844208D1AB
:101C900001218804FFF756FB00214FF48020FFF755
:101CA00051FB10BD002C0140000400400008004022
:101CB000000C0040001000400014004000340140BF
:101CC000004C014000500140005401400018004009
:101CD000001C004000200040004001400044014042
:101CE0000048014030B50246002000230024158A38
:101CF00005EA0103958905EA010413B10CB101203D
:101D000000E0002030BD1AB183890B43838102E0DB
:101D100083898B438381704770B5002400220023A0
:101D2000058C4FF6FF6635400584028C8388848BD2
:101D30004FF68F752C404FF6FC752C400D882C43C8
:101D40004FF6FF552A400D894FF6FF7606EA052526
:101D50002A434D8806EA05252A43154DA84202D09C
:101D6000144DA8421DD14FF2FF752A404D894FF600
:101D7000FF7606EA05252A434FF6FF352A408D886F
:101D800006EA05252A434EF6FF752B404DF6FF75F2
:101D90002B408D8906EA05152B43CD8906EA0515EA
:101DA0002B4383808483CD888587028470BD0000A7
:101DB000002C0140003401400A460021818B4FF67F
:101DC000F7731940114381837047000070B50022FA
:101DD00000230024058C4EF6FF7635400584038CE5
:101DE0008488828B48F6FF752A404FF6FF452A40CB
:101DF0000D884FF6FF7606EA05252A434DF6FF7556
:101E00002B400D8906EA05352B434D8806EA05353A
:101E10002B430B4DA84202D00A4DA84208D14BF6E5
:101E2000FF752C408D894FF6FF7606EA85152C4309
:101E300084808283CD88A0F84050038470BD000068
:101E4000002C0140003401400A460021818B4FF2F2
:101E5000FF7319404FF6FF7303EA0223194381838E
:101E600070478185704781877047A0F840107047A0
:101E7000002202881D4B98420ED01D4B98420BD079
:101E8000B0F1804F08D01B4B984205D01A4B9842B6
:101E900002D01A4B984204D14FF68F731A404B88E8
:101EA0001A43174B984207D0164B984204D04FF66E
:101EB000FF431A40CB881A4302808B8883850B88A6
:101EC00003850A4B98420BD0094B984208D00E4B21
:101ED000984205D00D4B984202D00D4B984201D14B
:101EE0000B7A03860123838270470000002C014097
:101EF000003401400004004000080040000C004095
:101F00000010004000140040004001400044014027
:101F1000004801400448006820B103480068401EA2
:101F200001490860704700002C00002010B540F205
:101F300025511B4800F0CDF880B340F225511848D8
:101F400000F046F8164800F07FF9C4B21548007852
:101F500020BB154815490968445414480068401CC2
:101F60001249086008460068401E0F49085C0D28A9
:101F700009D00E480068401E085C3E2803D00B487C
:101F80000068FF280AD900200749084A12688854C7
:101F900001200449087000200449086010BD0000B9
:101FA00000380140900000203D0200202800002061
:101FB00010B540F22551054800F08BF820B140F2F1
:101FC0002551024800F004F810BD00000044004014
:101FD00010B50022002340F66A14A14200D100BFD0
:101FE0000A1201249440A3B2DC43048010BD21B145
:101FF000828942F40052828104E082894DF6FF73A7
:102000001A4082817047000008B501210420FFF7C3
:1020100089F94FF40070ADF8000018208DF8030026
:1020200003208DF8020069460748FEF7A3FB4FF432
:102030008060ADF8000004208DF803006946024876
:10204000FEF798FB08BD00000008014010B500F045
:102050002BF8FFF7D9FF00F001F810BD1FB50121E3
:102060008803FFF75FF94FF4E13000900020ADF8EE
:102070000400ADF80600ADF80800ADF80C000C2027
:10208000ADF80A006946074800F072F8012240F2F4
:102090002551044800F047F801210248FFF7A7FF47
:1020A0001FBD00000038014008B54FF4A060FEF7E6
:1020B0009DFE25208DF8000001208DF801000020F4
:1020C0008DF8020001208DF803006846FEF756FEE9
:1020D00008BD70B50246002400230025002040F60C
:1020E0006A16B14200D100BFC1F3421501F01F03CF
:1020F000012606FA03F3012D02D19689334006E04A
:10210000022D02D1168A334001E0968A33400C1228
:10211000012606FA04F41688344013B10CB10120EC
:1021200000E0002070BDF0B5034600240026002525
:10213000002040F66A17B94200D100BF1846C1F32B
:10214000421401F01F06012707FA06F5012C01D100
:102150000C3004E0022C01D1103000E014301AB130
:1021600007682F43076002E00768AF430760F0BDD0
:102170002DE9F04786B005460E460024A24600BF72
:10218000A1460027B08900B100BF2F462C8A4CF62B
:10219000FF700440F08804432C82AC894EF6F310A3
:1021A0000440B08831890843718908430443AC81F5
:1021B000AC8A4FF6FF400440B0890443AC8201A8CA
:1021C000FFF7D0F81F48874202D1DDF810A001E0E8
:1021D000DDF80CA0A88900F4004040B10AEBCA0069
:1021E00000EB0A1031684900B0FBF1F807E00AEB98
:1021F000CA0000EB0A1031688900B0FBF1F86420D6
:10220000B8FBF0F004012009642101FB1089A889C2
:1022100000F4004040B1322000EBC900B0FBF1F007
:1022200000F00700044308E0322000EB09106421AD
:10223000B0FBF1F000F00F0004432C8106B0BDE8C4
:10224000F08700000038014001468888C0F308008C
:102250007047000008B501210420FFF763F804204F
:10226000ADF8000018208DF8030003208DF802005F
:1022700069460748FEF77EFA0820ADF80000042002
:102280008DF8030069460248FEF774FA08BD0000A5
:102290000008014010B500F02BF8FFF7DBFF00F05D
:1022A00001F810BD1FB501214804FFF71BF84FF4DA
:1022B000E13000900020ADF80400ADF80600ADF864
:1022C0000800ADF80C000C20ADF80A00694607487C
:1022D000FFF74EFF012240F225510448FFF723FF8C
:1022E00001210248FFF783FE1FBD000000440040AB
:1022F00008B54FF4A060FEF779FD26208DF80000A8
:1023000001208DF801008DF802008DF80300684669
:10231000FEF734FD08BD00BFFEE7014600BF704771
:10232000FEF740FCFEF7A8F9FFF706FAFEF708FAF9
:10233000FEF75EFFFEF712FDFFF788FEFFF7AAFF2C
:1023400003E0FEF7C9F8FEF7ABFDFAE710B5002988
:102350000AD00878002807D005487844FEF77CF8B2
:10236000002801D0002010BD0248784410BD0000B4
:102370003E00000036000000A824000800000020F5
:10238000A4000000280100084C250008A40000203B
:10239000C4080000440100081001000043000000D0
:1023A000F8FFFFFF00404040404040404040414176
:1023B000414141404040404040404040404040401A
:1023C00040404040400502020202020202020202B4
:1023D00002020202022020202020202020202002B1
:1023E0000202020202029090909090901010101041
:1023F00010101010101010101010101010101010DD
:102400000202020202028888888888880808080870
:10241000080808080808080808080808080808083C
:102420000202020240000000000000000000000064
:10243000000000000000000000000000000000009C
:10244000000000000000000000000000000000008C
:10245000000000000000000000000000000000007C
:10246000000000000000000000000000000000006C
:10247000000000000000000000000000000000005C
:10248000000000000000000000000000000000004C
:10249000000000000000000000000000000000003C
:1024A000000000000000000000A24A04000000003C
:1024B00000000000010203040607080900000000F4
:1024C00001020304010203040607080902040608C6
:1024D0000000000000000000E8030000DC05DC054F
:1024E000DC05DC05DC05DC05DC05DC05DC050100C4
:1024F0000000000000000000000001420100020096
:1025000003000400050006000700080009000A0097
:102510000B000C000D000E000F001000000000006A
:1025200000000000000000000000000000000000AB
:1025300000000000000000000000DC05DC05DC05F8
:0C254000DC05DC05DC05DC05DC0500002A
:04000005080000ED02
:00000001FF
